:020000040800F2
:1000000000000220012700082926000831260008E8
:100010003926000841260008492600080000000093
:100020000000000000000000000000005126000851
:100030005F260008000000006D2600087B260008EF
:1000400051270008512700085127000851270008B0
:1000500051270008512700085127000851270008A0
:100060005127000851270008512700085127000890
:100070005127000851270008512700085127000880
:100080008926000851270008512700085127000839
:100090005127000851270008512700085127000860
:1000A0005127000851270008512700085127000850
:1000B0005127000851270008512700085127000840
:1000C0005127000851270008512700085127000830
:1000D00051270008512700089D26000851270008D5
:1000E0005127000851270008512700085127000810
:1000F0005127000851270008512700085127000800
:1001000051270008512700085127000851270008EF
:10011000512700085127000851270008B126000880
:1001200051270008512700085127000851270008CF
:1001300051270008512700085127000851270008BF
:10014000512700085127000851270008C926000838
:10015000512700085127000851270008512700089F
:10016000512700085127000851270008512700088F
:1001700051270008512700085127000800000000FF
:08018000512700085127000877
:1001880010B5054C237833B9044B13B10448AFF3C9
:1001980000800123237010BDC00100200000000072
:1001A800BCC7000808B5034B1BB103490348AFF3AC
:1001B800008008BD00000000C4010020BCC7000882
:1001C80053B94AB9002908BF00281CBF4FF0FF31B6
:1001D8004FF0FF3000F06AB9ADF1080C6DE904CEBC
:1001E80000F006F8DDF804E0DDE9022304B070470A
:1001F8002DE9F047089D0C46002B4ED194468C45BE
:100208008646B2FA82F262D94AB1C2F1200391401D
:1002180020FA03F30CFA02FC194300FA02FE4FEA33
:100228001C471FFA8CF6B1FBF7F44FEA1E4307FB95
:10023800141143EA014304FB06F199420AD91CEB65
:10024800030304F1FF3080F01281994240F20F81DC
:10025800023C6344591A1FFA8EF3B1FBF7F007FB0F
:10026800101143EA014300FB06F69E420AD91CEB33
:10027800030300F1FF3180F0FC809E4240F2F980D8
:10028800634402389B1B40EA044000211DB1D3405F
:100298000022C5E90032BDE8F0878B4205D90DB1CF
:1002A800C5E9000100210846F5E7B3FA83F1002902
:1002B80046D1A34202D39042C0F0F080861A64EB84
:1002C80003030120002DE6D0C5E90063E3E7002A17
:1002D80040F09080A1EB0C044FEA1C481FFA8CF701
:1002E8000121B4FBF8F64FEA1E4308FB164443EA23
:1002F800044307FB06F0984208D91CEB030306F1F8
:10030800FF3402D2984200F2CD8026461C1A1FFA0A
:100318008EF3B4FBF8F008FB104443EA044300FBF7
:1003280007F79F4208D91CEB030300F1FF3402D200
:100338009F4200F2B0802046DB1B40EA0640A5E75A
:10034800C1F120068B4022FA06F71F4320FA06FC6B
:1003580004FA01F343EA0C03F44000FA01F8380CFC
:100368004FEA1349B4FBF0FE1FFA87FC00FB1E445A
:1003780049EA04440EFB0CF9A14502FA01F20AD934
:100388003C190EF1FF3A80F08480A14540F281804B
:10039800AEF1020E3C44A4EB09041FFA83F9B4FB46
:1003A800F0F300FB134449EA044403FB0CFCA445A6
:1003B80007D93C1903F1FF3067D2A44565D9023B40
:1003C8003C4443EA0E40A0FB0293A4EB0C049C427D
:1003D800CE469C4651D34ED055B1B8EB0E0364EBD4
:1003E8000C0404FA06F6CB401E43CC40C5E9006471
:1003F800002150E7C2F1200320FA03F10CFA02FCB5
:1004080024FA03F394400C434FEA1C4800FA02FE16
:100418001FFA8CF7B3FBF8F008FB1031230C43EA02
:10042800014300FB07F1994208D91CEB030300F1D3
:10043800FF362CD299422AD9023863445B1AA4B2F7
:10044800B3FBF8F108FB113344EA034401FB07F35B
:10045800A34208D91CEB040401F1FF3613D2A342CE
:1004680011D902396444E41A41EA004139E70446E3
:10047800F0E6084606E7C845AED2B9EB020E63EBD4
:10048800070C0138A8E73146EDE7034699E73046FF
:10049800D4E7D6467FE7634402384DE7064623464D
:1004A80008460FE7023E634430E700BF704700BFCD
:1004B80080B500AF184B1B6800225A62174B1B68A7
:1004C80000225A62164B1B6800225A62154B1B68A1
:1004D80000225A62144B1B6800225A62134B1B6895
:1004E80000225A6200210C4805F074F900210D48D9
:1004F80005F070F904210D4805F06CF9082107484A
:1005080005F068F90021064805F064F9002106485D
:1005180005F060F900BF80BDF0030020C80400208A
:10052800A8030020380400201803002060030020DE
:1005380080B483B000AF664B664A1A60644B664A63
:100548005A60634B00229A60614B0422DA60604B68
:10055800624A1A615E4B4DF2D8625A645C4B604A3B
:100568009A645B4B5F4ADA64594B00221A65584B10
:1005780000225A65564B5C4A9A65554B46F66052BE
:10058800C3F88C20524B594AC3F89020504B584A14
:10059800C3F894204E4B0822C3F898204C4B0022F5
:1005A800C3F89C204A4B534AC3F8A020484B43F653
:1005B8009822C3F8D42000237B607EE044497A68FF
:1005C8001346DB001344DB000B44143300221A608B
:1005D8003F497A681346DB001344DB000B441833A9
:1005E80000221A603A497A681346DB001344DB009C
:1005F8000B4424334FF47A721A6035497A681346EB
:10060800DB001344DB000B44283300221A60304916
:100618007A681346DB001344DB000B442C334FF09D
:1006280000021A602A497A681346DB001344DB008B
:100638000B44313300221A7025497A681346DB00CF
:100648001344DB000B44343300221A6020497A68D3
:100658001346DB001344DB000B44203300221A60EE
:100668001B497A681346DB001344DB000B44303324
:1006780000221A707B68D8B215497A681346DB00E5
:100688001344DB000B44403302461A7010497A6861
:100698001346DB001344DB000B44383300221A6096
:1006A8000B497A681346DB001344DB000B443233F2
:1006B80000221A707B6801337B607B68022B7FF70E
:1006C8007DAF00BF00BF0C37BD465DF8047B7047A7
:1006D800DC0100201803002060030020A50E00089C
:1006E800A803002038040020C90E0008C804002010
:1006F800F0030020ED0E000880B584B000AFF8606C
:10070800B9607A60FB6893F83130072B00F0E48019
:10071800FB6893F83C30012B00F0DE80FB685B6CD3
:10072800BA689A4202DBFB685B6CBB60BB68002B53
:1007380001D10023BB60FB68BA689A617A68FB68DC
:100748009A627B68674AA2FB03239B09013B664ABE
:100758009B0013441A68FB68DA62FB689A69FB68B5
:100768005B699A4204DDFB68002283F830200AE0C6
:10077800FB689A69FB685B699A4280F2AF80FB6804
:10078800012283F83020FB689A69FB685B699A420A
:1007980005DDFB689A69FB685B69D31A04E0FB68AE
:1007A8005A69FB689B69D31AFA68D361FB6801220E
:1007B80083F83120FB68012283F83C20FB68002283
:1007C80083F83D20FB681B681B6800225A62FB689F
:1007D8005B681B6800225A62FB681B69FA6892F81A
:1007E800302010469847FB68DA69FB685B681B682D
:1007F800DA62FB68DA69FB685B68DA60FB68DB6809
:10080800002B06D1FB68DA69FB685B681B685A63D2
:100818001EE0FB68DB68042B07D1FB68D969FB681D
:100828005B681A680B46936312E0FB68DB68082B69
:1008380007D1FB68D969FB685B681A680B46D36304
:1008480006E0FB68D969FB685B681A680B461364A5
:10085800FB6800221A62FB684FF47A725A62FB68DE
:100868005B681B6801225A61FB681B681B6840F2C1
:10087800E732DA62FB681B6840F2E732DA60FB684D
:100888009B68002B06D1FB681B681B6840F2F312BB
:100898005A631BE0FB689B68042B06D1FB681B6846
:1008A8001A6840F2F313936310E0FB689B68082B07
:1008B80006D1FB681B681A6840F2F313D36305E09E
:1008C800FB681B681A6840F2F3131364FB681B6823
:1008D8001B6801225A6102E000BF00E000BF103728
:1008E800BD4680BDD34D62101CC8000880B483B0DB
:1008F80000AF78607B6893F83130002B0CD07B68B0
:1009080093F83130042B07D07B68042283F8312018
:100918007B68012283F8322000BF0C37BD465DF8A2
:10092800047B704780B58AB000AFF860B9607A6020
:1009380087ED000A3E4B5B69FA689A4208DD3C4B3A
:100948005B69FA68D31A07EE903AF8EEE77A07E09F
:10095800374B5A69FB68D31A07EE903AF8EEE77AF4
:10096800C7ED097A324BDB6DBA689A4208DD304B25
:10097800DB6DBA68D31A07EE903AF8EEE77A07E02B
:100988002B4BDA6DBB68D31A07EE903AF8EEE77A8C
:10099800C7ED087A97ED097AD7ED087AB4EEE77AC9
:1009A800F1EE10FA01DD7B6A00E03B6AFB61D7EDEE
:1009B800007AFCEEE77A17EE902A79681D48FFF76F
:1009C8009BFED7ED077AF5EE407AF1EE10FA01D1E9
:1009D800002328E097ED007AD7ED097A67EE276AB9
:1009E80097ED077AC6EE877AFCEEE77A17EE903A2B
:1009F800BB6197ED007AD7ED087A67EE276A97ED25
:100A0800077AC6EE877AFCEEE77A17EE903A7B61B2
:100A1800BA69F9680648FFF76FFE7A69B968064847
:100A2800FFF76AFE012318462837BD4680BD00BF80
:100A3800DC0100206C0200202402002080B584B074
:100A480000AF03463A60FB710B46BB71BB79032BC1
:100A580055D0032B5EDC012B02D0022B19D059E0B4
:100A6800FA791346DB001344DB002D4A9818FA790B
:100A78002B491346DB001344DB000B4444331B684B
:100A88003A6802FB03F342F210721946FFF734FE8C
:100A980041E03B68002B1BD1FA7921491346DB0062
:100AA8001344DB000B4414331B68642B38BF6423E6
:100AB800643BFB60FA791346DB001344DB00184AF9
:100AC800134442F21072F9681846FFF715FE22E047
:100AD800FA791346DB001344DB00114A9818FA79B7
:100AE8000F491346DB001344DB000B4414331B6827
:100AF800643342F210721946FFF7FEFD0BE0FA79F3
:100B08001346DB001344DB00054A13441846FFF77D
:100B1800EDFE00E000BF00BF1037BD4680BD00BF3E
:100B2800DC01002080B584B000AF78600023FB6052
:100B38000023BB607B6893F83130013B032B00F244
:100B4800A18001A252F823F0610B0008950B000860
:100B5800110C0008410C00087B681A687B689B68C8
:100B68001946104604F06EFD7B685A687B68DB689E
:100B78001946104604F066FD7B68022283F831208E
:100B88007B685B6B5A1C7B685A6382E07B685B6B93
:100B9800642B0DD97B681A6A7B689A637B685B6BE8
:100BA8005A1E7B685A637B68032283F8312014E05D
:100BB8007B6893ED0B7A7B685B6B944A9B001344CC
:100BC800D3ED007A67EE277AFCEEE77A17EE903AD3
:100BD80003F57A731A467B685A627B685B6B5A1C0A
:100BE8007B685A637B68DB691A467B681B6A5B0013
:100BF8009A4249D87B68042283F831207B685B6B72
:100C08005A1E7B685A633FE07B689A6A7B685A621F
:100C18007B68DB691A467B681B6AD21A7B689B6B08
:100C28009A4233D87B68042283F831207B685B6B57
:100C38005A1E7B685A6329E07B685B6B5A1E7B6887
:100C48005A637B685B6B002B02DC7B6800225A636B
:100C58007B685B6B642B1BD87B6893ED0B7A7B6896
:100C68005B6B6A4A9B001344D3ED007A67EE277AE0
:100C7800FCEEE77A17EE903A03F57A731A467B682A
:100C88005A6205E000BF04E000BF02E000BF00E0D8
:100C980000BF7B685B6AB3F57A7F05D87B6893F8F9
:100CA8003C30012B40F0D1807B685B6A1A46584B78
:100CB800B3FBF2F3BB607B681B681B68BA68013A38
:100CC800DA627B681B68BA68013ADA607B689B68FD
:100CD800002B06D17B681B681B68BA6852085A63E8
:100CE8001BE07B689B68042B06D17B681B681A682D
:100CF800BB685B08936310E07B689B68082B06D190
:100D08007B681B681A68BB685B08D36305E07B686F
:100D18001B681A68BB685B0813647B685B681B68A0
:100D28005B6AFB607B6893F83030002B13D17B68DB
:100D38005B691946FA687B681B6AD31A0B441A4622
:100D48007B685A617B685B697A6892F832201A443A
:100D58007B685A6112E07B685B6919467B681A6A8E
:100D6800FB68D31A0B441A467B685A617B685B6937
:100D78007A6892F832209A1A7B685A617B68002256
:100D880083F832207B6859697B6893F840301A46AB
:100D980089B2204B23F81210FA687B681A627B68C4
:100DA8005A697B689B699A4203D07B685B6B002B0E
:100DB8004BD17B684FF47A725A627B68002283F8C1
:100DC80031207B68002283F83C207B68012283F86D
:100DD8003D207B6800225A637B6800229A637B6807
:100DE8009B68002B06D17B681B681B684FF47A72DE
:100DF8005A6322E07B689B68042B0DD17B681B68D3
:100E08001A684FF47A73936317E000BFE4C80008C8
:100E180040420F00EC2300207B689B68082B06D11A
:100E28007B681B681A684FF47A73D36305E07B68A4
:100E38001B681A684FF47A7313647B685A687B6876
:100E4800DB681946104604F0C5FC00BF1037BD46E4
:100E580080BD00BF80B582B000AF01210D4802F00F
:100E6800BBFB00237B600CE07A681346DB0013446D
:100E7800DB00094A13441846FFF754FE7B68013328
:100E88007B607B68022BEFDD00BF00BF0837BD46E3
:100E980080BD00BF00080240DC01002080B582B0A0
:100EA80000AF0346FB71FB791A464FF40071034803
:100EB80002F0AAFB00BF0837BD4680BD0000024013
:100EC80080B582B000AF0346FB71FB791A468021DA
:100ED800034802F099FB00BF0837BD4680BD00BF3C
:100EE8000008024080B582B000AF0346FB71FB7971
:100EF8001A464FF40071034802F086FB00BF08371A
:100F0800BD4680BD0008024080B582B000AF214BCD
:100F18001B6801331F4A1360FFF79CFF1D4B1B68BA
:100F28006FF00042934230D31A4B00221A6000231C
:100F38007B6027E0184A7B681B01134400221A6073
:100F4800154A7B681B0113440C331B68002B0FDA0E
:100F5800114A7B681B0113440C331B6803F10043DF
:100F680001330D497A6812010A440C32136006E015
:100F7800094A7B681B0113440C3300221A607B6802
:100F880001337B607B68052BD4DD00BF0837BD4685
:100F980080BD00BF14030020B402002080B483B0D9
:100FA80000AF03463960FB71FB79164A1B011344F5
:100FB800043301221A70FB79124A1B0113440833C7
:100FC8003A681A60FB79104A12680E491B010B44F3
:100FD8001A60FB790B4A1B0113441968FB79094A0B
:100FE8001B01134408331A68FB790A4405491B019D
:100FF8000B440C331A6000BF0C37BD465DF8047B08
:10100800704700BFB40200201403002080B582B0EE
:1010180000AF0346FB71FB79164A126816491B019B
:101028000B441A60FB79144A1B01134404331B78E0
:10103800012B19D1FB79104A1B0113441A68FB795B
:101048000D491B010B440C331B689A420CD3FB79E6
:10105800094A1B01134408331A68FB7911461846DC
:10106800FFF79CFF012300E0002318460837BD4620
:1010780080BD00BF14030020B402002080B500AF7B
:1010880001F064FB00F03AF800F080FC00F05EFC30
:101098000AF0BCF800F09AF800F0C6F900F052FA2D
:1010A80000F04CF900F070FB00F0C2FA00F036FBDB
:1010B80000F022FCFFF7FCF9FFF73AFA01210020C3
:1010C800FFF76CFF41F288310320FFF767FF0AF052
:1010D80091FD084804F0ECF90020FFF797FF03465C
:1010E8001A46054B1A70044B1B78012BF4D100F0FB
:1010F800B1FDF1E780040020B805002080B594B068
:1011080000AF07F120033022002118460BF026FB20
:1011180007F10C0300221A605A609A60DA601A61BB
:101128000023BB60274B1B6C264A43F08053136493
:10113800244B1B6C03F08053BB60BB6800237B60AF
:10114800214B1B68204A43F4804313601E4B1B68E5
:1011580003F480437B607B6801233B624FF4803358
:101168007B620223BB634FF48003FB6304233B646D
:1011780048237B640223BB640323FB6407F1200339
:10118800184603F0ADFC0346002B01D000F0A4FC88
:101198000F23FB6002233B6100237B614FF48053E4
:1011A800BB610023FB6107F10C030221184603F021
:1011B8000FFF0346002B01D000F08EFC00BF503714
:1011C800BD4680BD003802400070004080B59AB02E
:1011D80000AF07F1580300221A605A609A60DA607B
:1011E80007F1440300221A605A609A60DA601A61B3
:1011F80007F13C0300221A605A6007F1200300221D
:101208001A605A609A60DA601A615A619A613B46BC
:101218002022002118460BF0A1FA464B464A1A60D4
:10122800444B47225A60434B00229A60414B40F29C
:10123800E732DA603F4B00221A613E4B00225A61C6
:101248003C4B80229A613B4804F0E2F80346002BAD
:1012580001D000F041FC4FF48053BB6507F15803FF
:101268001946344804F0D8FC0346002B01D000F09E
:1012780033FC304804F08CF90346002B01D000F011
:101288002BFC05237B641023BB6407F14403194638
:10129800284804F088FD0346002B01D000F01CFC10
:1012A8002023FB6380233B6407F13C031946214854
:1012B80005F094F90346002B01D000F00DFC6023E3
:1012C8003B624FF4FA737B620023BB620023FB622C
:1012D80000233B6300237B630023BB6307F12003E8
:1012E80000221946134804F0D5FB0346002B01D011
:1012F80000F0F2FB00233B6000237B600023BB600F
:101308000023FB6000233B614FF400537B61002303
:10131800FB613B461946074805F0DCF90346002BFC
:1013280001D000F0D9FB034801F06EF800BF683720
:10133800BD4680BD180300200000014080B58EB076
:1013480000AF07F1240300221A605A609A60DA603D
:101358001A6107F11C0300221A605A603B460022FA
:101368001A605A609A60DA601A615A619A612D4B64
:101378004FF080421A602B4B00225A60294B002202
:101388009A60284B4FF47A72DA60264B00221A6171
:10139800244B80229A61234804F03AF80346002B34
:1013A80001D000F099FB1F4804F0F2F80346002B27
:1013B80001D000F091FB07237B620023BB6207F199
:1013C80024031946174804F0EEFC0346002B01D00D
:1013D80000F082FB5023FB6180233B6207F11C0372
:1013E8001946104805F0FAF80346002B01D000F022
:1013F80073FB60233B604FF47A737B600023BB6010
:1014080000233B613B4604221946064804F042FB90
:101418000346002B01D000F05FFB00BF3837BD4604
:1014280080BD00BF6003002080B592B000AF07F117
:10143800380300221A605A609A60DA6007F12403C0
:1014480000221A605A609A60DA601A6107F11C0378
:1014580000221A605A603B4600221A605A609A605D
:10146800DA601A615A619A61344B354A1A60334B13
:1014780047225A60314B00229A60304B40F2E732E3
:10148800DA602E4B00221A612C4B80229A612B487D
:1014980003F0BEFF0346002B01D000F01DFB4FF404
:1014A8008053BB6307F138031946244804F0B4FBA2
:1014B8000346002B01D000F00FFB204804F068F829
:1014C8000346002B01D000F007FB05237B62202395
:1014D800BB6207F124031946184804F064FC03466C
:1014E800002B01D000F0F8FA2023FB6180233B6237
:1014F80007F11C031946114805F070F80346002B44
:1015080001D000F0E9FA60233B604FF4FA737B6086
:101518000023BB6000233B613B4600221946074875
:1015280004F0B8FA0346002B01D000F0D5FA0348BE
:1015380000F06AFF00BF4837BD4680BDA803002001
:101548000004004080B58EB000AF07F124030022EC
:101558001A605A609A60DA601A6107F11C03002267
:101568001A605A603B4600221A605A609A60DA6034
:101578001A615A619A612C4B2C4A1A602A4B002234
:101588005A60294B00229A60274B40F2E732DA6012
:10159800254B00221A61244B80229A61224803F0CD
:1015A80037FF0346002B01D000F096FA1E4803F0DF
:1015B800EFFF0346002B01D000F08EFA07237B6271
:1015C8003023BB6207F124031946174804F0EBFBEC
:1015D8000346002B01D000F07FFA4023FB618023F3
:1015E8003B6207F11C0319460F4804F0F7FF034656
:1015F800002B01D000F070FA60233B6040F2E73323
:101608007B600023BB6000233B613B4600221946F8
:10161800054804F03FFA0346002B01D000F05CFABD
:1016280000BF3837BD4680BDF003002000080040E9
:1016380080B58EB000AF07F1240300221A605A600B
:101648009A60DA601A6107F11C0300221A605A6076
:101658003B4600221A605A609A60DA601A615A6141
:101668009A612C4B2C4A1A602A4B00225A60294B4B
:1016780000229A60274B40F2E732DA60254B0022BD
:101688001A61244B80229A61224803F0C1FE034666
:10169800002B01D000F020FA1E4803F079FF034622
:1016A800002B01D000F018FA07237B621023BB62DD
:1016B80007F124031946174804F075FB0346002B6D
:1016C80001D000F009FA4023FB6180233B6207F157
:1016D8001C0319460F4804F081FF0346002B01D074
:1016E80000F0FAF960233B6040F2E7337B600023A7
:1016F800BB6000233B613B4600221946054804F0C5
:10170800C9F90346002B01D000F0E6F900BF3837CD
:10171800BD4680BD38040020000C004080B582B072
:1017280000AF3B4600221A605A60154B154A1A60F2
:10173800134B47225A60124B00229A60104B40F21A
:10174800E732DA600E4B80229A610D4803F060FEA2
:101758000346002B01D000F0BFF900233B600023B3
:101768007B603B461946064804F038FF0346002BC9
:1017780001D000F0B1F900BF0837BD4680BD00BFF9
:10178800800400200014004080B59AB000AF07F133
:10179800580300221A605A609A60DA6007F144031D
:1017A80000221A605A609A60DA601A6107F13C03F5
:1017B80000221A605A6007F1200300221A605A605A
:1017C8009A60DA601A615A619A613B4620220021C8
:1017D80018460AF0C3FF464B464A1A60444B472254
:1017E8005A60434B00229A60414B40F2E732DA607C
:1017F8003F4B00221A613E4B00225A613C4B80222B
:101808009A613B4803F004FE0346002B01D000F028
:1018180063F94FF48053BB6507F158031946344800
:1018280004F0FAF90346002B01D000F055F93048CE
:1018380003F0AEFE0346002B01D000F04DF905235E
:101848007B642023BB6407F144031946284804F04D
:10185800AAFA0346002B01D000F03EF92023FB63CF
:1018680080233B6407F13C031946214804F0B6FE87
:101878000346002B01D000F02FF960233B624FF4A0
:10188800FA737B620023BB620023FB6200233B6385
:1018980000237B630023BB6307F12003082219465A
:1018A800134804F0F7F80346002B01D000F014F9B0
:1018B80000233B6000237B600023BB600023FB60A8
:1018C80000233B614FF400537B610023FB613B46DF
:1018D8001946074804F0FEFE0346002B01D000F02D
:1018E800FBF8034800F090FD00BF6837BD4680BD97
:1018F800C80400200004014080B500AF114B124A13
:101908001A60104B4FF4E1325A600E4B00229A6075
:101918000C4B0022DA600B4B00221A61094B0C2297
:101928005A61084B00229A61064B0022DA61054889
:1019380004F036FF0346002B01D000F0CDF800BFBD
:1019480080BD00BF100500200044004080B582B073
:1019580000AF00237B600C4B1B6B0B4A43F4001356
:101968001363094B1B6B03F400137B607B68002235
:101978000021102001F05BF8102001F074F800BF7E
:101988000837BD4680BD00BF0038024080B58AB028
:1019980000AF07F1140300221A605A609A60DA60F7
:1019A8001A6100233B61484B1B6B474A43F0100305
:1019B8001363454B1B6B03F010033B613B6900232A
:1019C800FB60414B1B6B404A43F0800313633E4B63
:1019D8001B6B03F08003FB60FB680023BB603A4B82
:1019E8001B6B394A43F004031363374B1B6B03F03B
:1019F8000403BB60BB6800237B60334B1B6B324A1C
:101A080043F001031363304B1B6B03F001037B604E
:101A18007B6800227F212D4801F0F6FD00224FF45B
:101A280020712B4801F0F0FD00224FF402412948B3
:101A380001F0EAFD7F237B610123BB610023FB6189
:101A480000233B6207F114031946204801F028FCE3
:101A580001237B610023BB610023FB6107F11403B1
:101A680019461B4801F01CFC4FF680737B6100236C
:101A7800BB610023FB6107F114031946134801F009
:101A88000FFC4FF420737B610123BB610023FB61D2
:101A980000233B6207F1140319460D4801F000FCCE
:101AA8004FF402437B610123BB610023FB610023E8
:101AB8003B6207F114031946064801F0F1FB00BF29
:101AC8002837BD4680BD00BF0038024000100240E4
:101AD800000802400000024080B400AF72B600BFA8
:101AE80000BFFDE780B400AF054B1A68137843F0D8
:101AF8000203137000BFBD465DF8047B704700BF4A
:101B0800B001002080B582B000AF0023FB70002335
:101B18007B608FE04C4B1B681B781A467B6842FA47
:101B280003F303F00103002B14BF01230023DBB2EE
:101B3800FB70FB78012B3AD144497A6813465B0065
:101B480013449B000B4404331B68591C3F487A68B4
:101B580013465B0013449B000344043319603B495C
:101B68007A6813465B0013449B000B4404331B68DC
:101B7800B3F57A7F52D335497A6813465B0013442C
:101B88009B000B4408331B78002B47D12F497A68F8
:101B980013465B0013449B000B44083301221A7060
:101BA8002B4A7B6852F823300120984736E02749B2
:101BB8007A6813465B0013449B000B441B78012B87
:101BC8002CD122497A6813465B0013449B000B44CE
:101BD80004331B68B3F57A7F06D21D4A7B6852F836
:101BE80023300220984705E0194A7B6852F82330D1
:101BF8000320984715497A6813465B0013449B00F5
:101C08000B44043300221A6010497A6813465B00BB
:101C180013449B000B44083300221A700B497A685E
:101C280013465B0013449B000B44FA781A707B68D8
:101C380001337B607B68052B7FF66CAF00BF00BF6C
:101C48000837BD4680BD00BFAC010020BC050020A0
:101C58000000002080B582B000AF234B1B78002B1A
:101C68003DD1224B1B681B7803F00103DBB2002B2C
:101C780036D11E4B1B681B7803F00203DBB2002B26
:101C88002ED01B4B1B681B881A041A4B1B681B7829
:101C98001B021343184A1268127813437B607B684F
:101CA80093FAA3F2B2FA82F2002B01D14FF0FF327D
:101CB800531CDBB2073BDBB25AB2104B1A700F4B06
:101CC80093F90030002B07DB0C4B93F900300C4ADA
:101CD800DB0013445B689847FFF714FF00E000BF80
:101CE8000837BD4680BD00BFBA050020B0010020FE
:101CF800B4010020BC010020AC010020B90500207F
:101D08001800002080B582B000AF0346FB71FB7954
:101D1800002219460020FEF791FE00BF0837BD4695
:101D280080BD80B582B000AF0346FB71FB7901220C
:101D380019460020FEF782FE00BF0837BD4680BD69
:101D480080B582B000AF0346FB71FB7900221946CB
:101D58000120FEF773FE00BF0837BD4680BD80B581
:101D680082B000AF0346FB71FB79012219460120BE
:101D7800FEF764FE00BF0837BD4680BD80B582B05F
:101D880000AF0346FB71FB79002219460220FEF7DB
:101D980055FE00BF0837BD4680BD80B582B000AF94
:101DA8000346FB71FB79012219460220FEF746FE25
:101DB80000BF0837BD4680BD80B400AF00BFBD4638
:101DC8005DF8047B704780B400AF00BFBD465DF886
:101DD800047B704780B400AF00BFBD465DF8047B4C
:101DE800704780B400AF00BFBD465DF8047B704704
:101DF80080B500AF194B1B78032B1CD0032B25DCB7
:101E0800012B02D0022B0BD020E00621002009F084
:101E1800B1FF134B1A68137843F00103137015E0F0
:101E28000821002009F0A6FF0D4B1A68137843F02B
:101E3800020313700AE00A21002009F09BFF084BF7
:101E48001A68137843F00403137000BF034B002291
:101E58001A70032009F0B0FF00BF80BDBB05002049
:101E6800B801002080B500AF194B1B78062B1CD099
:101E7800062B25DC042B02D0052B0BD020E00C21EF
:101E8800002009F077FF134B1A68137843F0080312
:101E9800137015E00E21002009F06CFF0D4B1A6835
:101EA800137843F0100313700AE01021002009F0A2
:101EB80061FF084B1A68137843F02003137000BFC2
:101EC800034B00221A70032009F076FF00BF80BD83
:101ED800BB050020B801002080B500AF1C4B1B7863
:101EE800092B22D0092B2EDC072B02D0082B0ED071
:101EF80029E01221002009F03DFF164B1A681378DB
:101F080043F040031370032009F056FF1BE014212F
:101F1800002009F02FFF0F4B1A68137843F0800355
:101F28001370032009F048FF0DE01621002009F086
:101F380021FF084B1A68537843F0010353700420BB
:101F480009F03AFF00BF024B00221A7000BF80BDA3
:101F5800BB050020B801002098B500AF784B1B786E
:101F6800013B082B00F2DC8001A252F823F000BFED
:101F78009D1F0008C91F0008F51F00082120000840
:101F88004D20000879200008A5200008D12000086D
:101F9800FD200008062009F0D7FE03461C4607204E
:101FA80009F0D2FE03461946664B9B889FED660AE8
:101FB8001A462046FEF7B6FC032009F0FDFEB0E005
:101FC800082009F0C1FE03461C46092009F0BCFEA2
:101FD800034619465B4B9B889FED5B0A1A462046D1
:101FE800FEF7A0FC032009F0E7FE9AE00A2009F0BA
:101FF800ABFE03461C460B2009F0A6FE0346194615
:10200800504B9B889FED500A1A462046FEF78AFCE3
:10201800032009F0D1FE84E00C2009F095FE034668
:102028001C460D2009F090FE03461946454B9B8837
:102038009FED450A1A462046FEF774FC032009F076
:10204800BBFE6EE00E2009F07FFE03461C460F2003
:1020580009F07AFE034619463A4B9B889FED3A0AE7
:102068001A462046FEF75EFC032009F0A5FE58E05C
:10207800102009F069FE03461C46112009F064FE91
:10208800034619462F4B9B889FED2F0A1A46204678
:10209800FEF748FC032009F08FFE42E0122009F009
:1020A80053FE03461C46132009F04EFE034619460C
:1020B800244B9B889FED240A1A462046FEF732FCE3
:1020C800032009F079FE2CE0142009F03DFE0346B8
:1020D8001C46152009F038FE03461946194B9B8803
:1020E8009FED190A1A462046FEF71CFC032009F04A
:1020F80063FE16E0162009F027FE03461C4617204B
:1021080009F022FE034619460E4B9B889FED0E0AE6
:102118001A462046FEF706FC042009F04DFE00E0B2
:1021280000BF022009F048FE054B00221A70074B39
:102138001A68537843F00203537000BF98BD00BF7C
:10214800BB050020EC23002000401C46B8010020FD
:1021580080B400AF034B01221A7000BFBD465DF882
:10216800047B7047BB05002080B400AF034B0222FC
:102178001A7000BFBD465DF8047B7047BB050020A0
:1021880080B400AF034B03221A7000BFBD465DF850
:10219800047B7047BB05002080B400AF034B0422CA
:1021A8001A7000BFBD465DF8047B7047BB05002070
:1021B80080B400AF034B05221A7000BFBD465DF81E
:1021C800047B7047BB05002080B400AF034B062298
:1021D8001A7000BFBD465DF8047B7047BB05002040
:1021E80080B400AF034B07221A7000BFBD465DF8EC
:1021F800047B7047BB05002080B400AF034B082266
:102208001A7000BFBD465DF8047B7047BB0500200F
:1022180080B400AF034B09221A7000BFBD465DF8B9
:10222800047B7047BB05002080B500AF074B1B88B7
:102238001846064B5B881946044B9B889FED040A99
:102248001A46FEF76FFB00BF80BD00BFEC230020DD
:1022580000401C4680B400AF00BFBD465DF8047B5B
:102268007047000080B483B000AF00237B60104B40
:102278005B6C0F4A43F4804353640D4B5B6C03F46F
:1022880080437B607B6800233B60094B1B6C084ADA
:1022980043F080531364064B1B6C03F080533B6080
:1022A8003B6800BF0C37BD465DF8047B704700BF34
:1022B8000038024080B58AB000AF78607B681B6840
:1022C8004A4A93420ED100237B62494B5B6C484AD1
:1022D80043F001035364464B5B6C03F001037B62DC
:1022E8007B6A7EE07B681B68B3F1804F0ED10023C8
:1022F8003B623F4B1B6C3E4A43F0010313643C4B6B
:102308001B6C03F001033B623B6A6AE07B681B6855
:10231800384A93420ED10023FB61354B1B6C344A7B
:1023280043F002031364324B1B6C03F00203FB619E
:10233800FB6956E07B681B682F4A93420ED1002345
:10234800BB612B4B1B6C2A4A43F004031364284BD4
:102358001B6C03F00403BB61BB6942E07B681B682C
:10236800264A93420ED100237B61214B1B6C204AE5
:1023780043F0080313641E4B1B6C03F008037B61D6
:102388007B692EE07B681B681D4A934216D10023A7
:102398003B61174B1B6C164A43F020031364144B24
:1023A8001B6C03F020033B613B69002200213720AE
:1023B80000F03DFB372000F056FB12E07B681B68FD
:1023C800104A93420DD10023FB60094B5B6C084A0D
:1023D80043F002035364064B5B6C03F00203FB609B
:1023E800FB6800BF2837BD4680BD00BF0000014024
:1023F800003802400004004000080040000C004083
:10240800001400400004014080B58AB000AF786035
:1024180007F1140300221A605A609A60DA601A61A0
:102428007B681B68374A93421FD100233B61364BB8
:102438001B6B354A43F001031363334B1B6B03F0EB
:1024480001033B613B694FF480737B610223BB61ED
:102458000023FB6100233B6201237B6207F1140325
:1024680019462A4800F01CFF47E07B681B68284A89
:1024780093421ED10023FB60234B1B6B224A43F07F
:1024880004031363204B1B6B03F00403FB60FB681E
:1024980040237B610223BB610023FB6100233B6275
:1024A80002237B6207F1140319461A4800F0F8FE6C
:1024B80023E07B681B68184A93421ED10023BB6047
:1024C800114B1B6B104A43F0040313630E4B1B6B39
:1024D80003F00403BB60BB684FF480737B61022385
:1024E800BB610023FB6100233B6203237B6207F18E
:1024F80014031946074800F0D3FE00BF2837BD462D
:1025080080BD00BF000001400038024000000240CA
:1025180000040040000802400004014080B58AB071
:1025280000AF786007F1140300221A605A609A60BD
:10253800DA601A617B681B68344A934261D10023D0
:102548003B61334B1B6C324A43F400331364304B0A
:102558001B6C03F400333B613B690023FB602C4B8D
:102568001B6B2B4A43F001031363294B1B6B03F0CE
:102578000103FB60FB680C237B610223BB61002322
:10258800FB6103233B6207237B6207F114031946AF
:10259800204800F085FE204B204A1A601E4B4FF061
:1025A80000625A601C4B00229A601B4B0022DA60C2
:1025B800194B4FF480621A61174B00225A61164B6F
:1025C80000229A61144B0022DA61134B00221A622E
:1025D800114B00225A62104800F060FA0346002BA3
:1025E80001D0FFF779FA7B680B4ADA630A4A7B68FD
:1025F800936300220021262000F019FA262000F01B
:1026080032FA00BF2837BD4680BD00BF00440040F5
:10261800003802400000024058050020886002404F
:1026280080B400AF00BFFDE780B400AF00BFFDE796
:1026380080B400AF00BFFDE780B400AF00BFFDE786
:1026480080B400AF00BFFDE780B400AF00BFBD4657
:102658005DF8047B704780B400AF00BFBD465DF8ED
:10266800047B704780B400AF00BFBD465DF8047BB3
:10267800704780B500AF00F0BBF800BF80BD000018
:1026880080B500AF024800F0A1FB00BF80BD00BFCD
:102698005805002080B500AF024804F0B5F900BF26
:1026A80080BD00BF1005002080B500AFFEF72CFCF0
:1026B800024803F0FFF800BF80BD00BF800400207F
:1026C80080B500AF024801F0FCF800BF80BD00BF34
:1026D800E81A002080B400AF064BD3F88830054ACA
:1026E80043F47003C2F8883000BFBD465DF8047B30
:1026F800704700BF00ED00E0DFF834D0FFF7EAFFD5
:102708000C480D490D4A002302E0D458C450043344
:10271800C4188C42F9D30A4A0A4C002301E013601A
:102728000432A242FBD30AF021F8FEF7A7FC704757
:102738000000022000000020C0010020A8CC0008F2
:10274800C00100201C250020FEE7000080B500AF76
:102758000E4B1B680D4A43F4007313600B4B1B6848
:102768000A4A43F480631360084B1B68074A43F422
:1027780080731360032000F04FF90F2000F008F871
:10278800FFF770FD0023184680BD00BF003C0240E3
:1027980080B582B000AF7860124B1A68124B1B7874
:1027A80019464FF47A73B3FBF1F3B2FBF3F318460F
:1027B80000F067F90346002B01D001230EE07B6887
:1027C8000F2B0AD8002279684FF0FF3000F02FF95C
:1027D800064A7B681360002300E001231846083787
:1027E800BD4680BDB0000020B8000020B400002025
:1027F80080B400AF064B1B781A46064B1B6813447F
:10280800044A136000BFBD465DF8047B704700BFF3
:10281800B80000200406002080B400AF034B1B68FA
:102828001846BD465DF8047B704700BF04060020CB
:1028380080B584B000AF7860FFF7EEFFB8607B68C2
:10284800FB60FB68B3F1FF3F05D00A4B1B781A46C3
:10285800FB681344FB6000BFFFF7DEFF0246BB685E
:10286800D31AFA689A42F7D800BF00BF1037BD469E
:1028780080BD00BFB800002080B485B000AF78608C
:102888007B6803F00703FB600C4BDB68BB60BA682E
:102898004FF6FF031340BB60FB681A02BB68134383
:1028A80043F0BF6343F40033BB60044ABB68D360A2
:1028B80000BF1437BD465DF8047B704700ED00E0AB
:1028C80080B400AF044BDB681B0A03F0070318460B
:1028D800BD465DF8047B704700ED00E080B483B02E
:1028E80000AF0346FB7197F90730002B0BDBFB7930
:1028F80003F01F02074997F907305B09012000FA26
:1029080002F241F8232000BF0C37BD465DF8047B76
:10291800704700BF00E100E080B483B000AF034619
:102928003960FB7197F90730002B0ADB3B68DAB294
:102938000C4997F907301201D2B20B4483F80023EF
:102948000AE03B68DAB20849FB7903F00F03043B5D
:102958001201D2B20B441A7600BF0C37BD465DF89F
:10296800047B704700E100E000ED00E080B489B02E
:1029780000AFF860B9607A60FB6803F00703FB6199
:10298800FB69C3F10703042B28BF0423BB61FB6960
:102998000433062B02D9FB69033B00E000237B616B
:1029A8004FF0FF32BB6902FA03F3DA43BB681A40FF
:1029B8007B699A404FF0FF317B6901FA03F3D943F1
:1029C8007B680B40134318462437BD465DF8047BEB
:1029D8007047000080B582B000AF78607B68013B2B
:1029E800B3F1807F01D301230FE00A4A7B68013BE2
:1029F80053600F214FF0FF30FFF78EFF054B002289
:102A08009A60044B07221A60002318460837BD460F
:102A180080BD00BF10E000E080B582B000AF7860F4
:102A28007868FFF729FF00BF0837BD4680BD80B52D
:102A380086B000AF0346B9607A60FB7300237B6100
:102A4800FFF73EFF78617A68B9687869FFF78EFF0B
:102A5800024697F90F3011461846FFF75DFF00BF91
:102A68001837BD4680BD80B582B000AF0346FB7104
:102A780097F907301846FFF731FF00BF0837BD4602
:102A880080BD80B582B000AF78607868FFF7A2FF9C
:102A9800034618460837BD4680BD000080B586B09D
:102AA80000AF786000237B61FFF7B6FE38617B6872
:102AB800002B01D1012399E07B68022283F835209D
:102AC8007B68002283F834207B681B681A687B685F
:102AD8001B6822F001021A600FE0FFF79DFE024614
:102AE8003B69D31A052B08D97B6820225A657B6875
:102AF800032283F83520032378E07B681B681B6872
:102B080003F00103002BE8D17B681B681B687B611D
:102B18007A69384B13407B617B685A687B689B688D
:102B28001A437B68DB681A437B681B691A437B6816
:102B38005B691A437B689B691A437B68DB691A43A4
:102B48007B681B6A13437A6913437B617B685B6A02
:102B5800042B07D17B68DA6A7B681B6B13437A699D
:102B680013437B617B681B687A691A607B681B6802
:102B78005B697B617B6923F007037B617B685B6A28
:102B88007A6913437B617B685B6A042B17D17B6886
:102B98009B6A7A6913437B617B68DB6A002B0ED0E2
:102BA800786800F001FB0346002B08D07B684022C0
:102BB8005A657B68012283F83520012316E07B687B
:102BC8001B687A695A61786800F0B8FA0346FB60B6
:102BD8007B68DB6D3F229A40FB689A607B68002225
:102BE8005A657B68012283F8352000231846183778
:102BF800BD4680BD3F8010F080B586B000AFF8605C
:102C0800B9607A603B600023FB75FB689B6D3B6194
:102C1800FB6893F83430012B01D1022340E0FB68B4
:102C2800012283F83420FB6893F83530DBB2012B9E
:102C38002FD1FB68022283F83520FB6800225A65F1
:102C48003B687A68B968F86800F04AFAFB68DB6D97
:102C58003F229A403B699A60FB681B681A68FB68C8
:102C68001B6842F016021A60FB681B6C002B07D029
:102C7800FB681B681A68FB681B6842F008021A6048
:102C8800FB681B681A68FB681B6842F001021A603F
:102C980005E0FB68002283F834200223FB75FB7DE6
:102CA80018461837BD4680BD80B584B000AF78603F
:102CB8007B689B6DFB60FFF7AFFDB8607B6893F89E
:102CC8003530DBB2022B08D07B6880225A657B68DE
:102CD800002283F83420012352E07B681B681A68BD
:102CE8007B681B6822F016021A607B681B685A69A9
:102CF8007B681B6822F080025A617B681B6C002B82
:102D080003D17B689B6C002B07D07B681B681A6813
:102D18007B681B6822F008021A607B681B681A68C7
:102D28007B681B6822F001021A6013E0FFF774FD4C
:102D38000246BB68D31A052B0CD97B6820225A653A
:102D48007B68032283F835207B68002283F83420CF
:102D5800032315E07B681B681B6803F00103002B45
:102D6800E4D17B68DB6D3F229A40FB689A607B6800
:102D7800012283F835207B68002283F83420002361
:102D880018461037BD4680BD80B483B000AF786068
:102D98007B6893F83530DBB2022B04D07B68802245
:102DA8005A6501230CE07B68052283F835207B688F
:102DB8001B681A687B681B6822F001021A600023EE
:102DC80018460C37BD465DF8047B704780B586B061
:102DD80000AF78600023BB608E4B1B688E4AA2FB55
:102DE80003239B0A7B617B689B6D3B613B691B6886
:102DF800FB607B68DB6D08229A40FB681340002B60
:102E08001AD07B681B681B6803F00403002B13D0DF
:102E18007B681B681A687B681B6822F004021A60CA
:102E28007B68DB6D08229A403B699A607B685B6D22
:102E380043F001027B685A657B68DB6D01229A408A
:102E4800FB681340002B12D07B681B685B6903F09A
:102E58008003002B0BD07B68DB6D01229A403B6915
:102E68009A607B685B6D43F002027B685A657B68F9
:102E7800DB6D04229A40FB681340002B12D07B685C
:102E88001B681B6803F00203002B0BD07B68DB6D0B
:102E980004229A403B699A607B685B6D43F00402A8
:102EA8007B685A657B68DB6D10229A40FB6813408B
:102EB800002B43D07B681B681B6803F00803002BBA
:102EC8003CD07B68DB6D10229A403B699A607B6836
:102ED8001B681B6803F48023002B18D07B681B68D1
:102EE8001B6803F40023002B08D17B681B6C002BA4
:102EF80024D07B681B6C786898471FE07B689B6CC4
:102F0800002B1BD07B689B6C7868984716E07B6821
:102F18001B681B6803F48073002B07D17B681B6850
:102F28001A687B681B6822F008021A607B681B6CB1
:102F3800002B03D07B681B6C786898477B68DB6D37
:102F480020229A40FB681340002B00F08F807B689A
:102F58001B681B6803F01003002B00F087807B6858
:102F6800DB6D20229A403B699A607B6893F8353084
:102F7800DBB2052B36D17B681B681A687B681B6837
:102F880022F016021A607B681B685A697B681B6806
:102F980022F080025A617B681B6C002B03D17B688E
:102FA8009B6C002B07D07B681B681A687B681B68C2
:102FB80022F008021A607B68DB6D3F229A403B6969
:102FC8009A607B68012283F835207B68002283F8A9
:102FD80034207B681B6D002B7ED07B681B6D786866
:102FE800984779E07B681B681B6803F48023002BF3
:102FF8001DD07B681B681B6803F40023002B0DD1D0
:103008007B685B6C002B31D07B685B6C7868984779
:103018002CE000BFB0000020B5814E1B7B68DB6B45
:10302800002B23D07B68DB6B786898471EE07B68B1
:103038001B681B6803F48073002B0FD17B681B6827
:103048001A687B681B6822F010021A607B680122EC
:1030580083F835207B68002283F834207B68DB6B9B
:10306800002B03D07B68DB6B786898477B685B6DC7
:10307800002B32D07B685B6D03F00103002B22D05C
:103088007B68052283F835207B681B681A687B6893
:103098001B6822F001021A60BB680133BB607A69C1
:1030A8009A4207D37B681B681B6803F00103002B57
:1030B800F2D100E000BF7B68012283F835207B68ED
:1030C800002283F834207B68DB6C002B05D07B68FA
:1030D800DB6C7868984700E000BF1837BD4680BDB4
:1030E80080B485B000AFF860B9607A603B60FB6877
:1030F8001B681A68FB681B6822F480221A60FB6848
:103108001B683A685A60FB689B68402B08D1FB68CB
:103118001B687A689A60FB681B68BA68DA6007E01F
:10312800FB681B68BA689A60FB681B687A68DA6093
:1031380000BF1437BD465DF8047B704780B485B086
:1031480000AF78607B681B68DBB2103B144AA2FBB7
:1031580003231B09FB60134AFB6813441B781A46B8
:103168007B68DA65FB68032B09D97B681B6823F445
:103178007F7323F003031A1D7B689A6507E07B6859
:103188001B6823F47F7323F003037A6893657B68D5
:103198009B6D18461437BD465DF8047B704700BF29
:1031A800ABAAAAAA90CA000880B485B000AF78601C
:1031B8000023FB737B689B6ABB607B689B69002B61
:1031C8001FD1BB68032B56D801A252F823F000BFC9
:1031D800E9310008FB310008E93100087F320008B6
:1031E8007B68DB6A03F08073002B46D00123FB73F6
:1031F80043E07B68DB6AB3F1C07F40D10123FB73F6
:103208003DE07B689B69B3F5005F21D1BB68032B68
:1032180037D801A252F823F03132000837320008BB
:1032280031320008493200080123FB7330E07B6823
:10323800DB6A03F08073002B25D00123FB7322E0A7
:103248007B68DB6AB3F1C07F1FD10123FB731CE0ED
:10325800BB68022B03D9BB68032B03D018E00123FA
:10326800FB7315E07B68DB6A03F08073002B0ED0DC
:103278000123FB730BE000BF0AE000BF08E000BFBA
:1032880006E000BF04E000BF02E000BF00E000BFAE
:10329800FB7B18461437BD465DF8047B704700BFBA
:1032A80080B489B000AF7860396000237B61002367
:1032B8003B610023BB610023FB616BE10122FB69D9
:1032C80002FA03F37B613B681B687A6913403B6130
:1032D8003A697B699A4240F05A813B685B6803F01F
:1032E8000303012B05D03B685B6803F00303022B43
:1032F80030D17B689B68BB61FB695B00032202FAE3
:1033080003F3DB43BA691340BB613B68DA68FB69C6
:103318005B0002FA03F3BA691343BB617B68BA69BD
:103328009A607B685B68BB610122FB6902FA03F360
:10333800DB43BA691340BB613B685B681B0903F058
:103348000102FB6902FA03F3BA691343BB617B68A4
:10335800BA695A603B685B6803F00303032B17D014
:103368007B68DB68BB61FB695B00032202FA03F33D
:10337800DB43BA691340BB613B689A68FB695B0031
:1033880002FA03F3BA691343BB617B68BA69DA606E
:103398003B685B6803F00303022B23D1FB69DA085F
:1033A8007B68083253F82230BB61FB6903F00703DE
:1033B8009B000F2202FA03F3DB43BA691340BB6197
:1033C8003B681A69FB6903F007039B0002FA03F3E1
:1033D800BA691343BB61FB69DA087B680832B969CB
:1033E80043F822107B681B68BB61FB695B00032202
:1033F80002FA03F3DB43BA691340BB613B685B68BD
:1034080003F00302FB695B0002FA03F3BA69134392
:10341800BB617B68BA691A603B685B6803F4403338
:10342800002B00F0B4800023FB60604B5B6C5F4AAC
:1034380043F4804353645D4B5B6C03F48043FB604F
:10344800FB685B4AFB699B08023352F82330BB6177
:10345800FB6903F003039B000F2202FA03F3DB432B
:10346800BA691340BB617B68524A93422BD07B6890
:10347800514A934225D07B68504A93421FD07B68BB
:103488004F4A934219D07B684E4A934213D07B68C7
:103498004D4A93420DD07B684C4A934207D07B68D3
:1034A8004B4A934201D107230EE008230CE0062380
:1034B8000AE0052308E0042306E0032304E00223CE
:1034C80002E0012300E00023FA6902F003029200FF
:1034D8009340BA691343BB613549FB699B080233C2
:1034E800BA6941F823203B4B9B68BB613B69DB43CE
:1034F800BA691340BB613B685B6803F48013002B17
:1035080003D0BA693B691343BB61324ABB69936014
:10351800304BDB68BB613B69DB43BA691340BB6175
:103528003B685B6803F40013002B03D0BA693B695E
:103538001343BB61274ABB69D360264B5B68BB61F9
:103548003B69DB43BA691340BB613B685B6803F4C2
:103558000033002B03D0BA693B691343BB611D4A92
:10356800BB6953601B4B1B68BB613B69DB43BA6992
:103578001340BB613B685B6803F48033002B03D0C6
:10358800BA693B691343BB61124ABB691360FB69A3
:103598000133FB61FB690F2B7FF690AE00BF00BFC4
:1035A8002437BD465DF8047B704700BF00380240F1
:1035B80000380140000002400004024000080240B8
:1035C800000C0240001002400014024000180240A3
:1035D800001C0240003C014080B485B000AF786018
:1035E8000B467B807B681A697B881340002B02D0CE
:1035F8000123FB7301E00023FB73FB7B18461437A0
:10360800BD465DF8047B704780B483B000AF786036
:103618000B467B8013467B707B78002B03D07A881F
:103628007B689A6103E07B881A047B689A6100BF13
:103638000C37BD465DF8047B704780B586B002AF95
:1036480078607B68002B01D1012301E17B681B684E
:10365800BB607B6893F89534DBB2002B06D17B689E
:10366800002283F89424786807F0B0FF7B6803226F
:1036780083F89524BB68B3F1A04F02D17B68002280
:103688009A717B681B68184604F0DBFB7B68186836
:103698007B681A7C8DF8002004330ECB04F0BAFA4C
:1036A8000346002B05D07B68022283F8952401236A
:1036B800CEE07B681B680021184604F0D3FB034664
:1036C800002B05D07B68022283F895240123BFE0F4
:1036D8000023FB734AE0FA7B79681346DB00134446
:1036E8009B000B44153301221A70FA7B7968134644
:1036F800DB0013449B000B441433FA7B1A70FA7BEB
:10370800FB7B98B279681346DB0013449B000B449B
:103718002E3302461A80FA7B79681346DB0013447D
:103728009B000B44183300221A70FA7B7968134601
:10373800DB0013449B000B441C3300221A60FA7B05
:1037480079681346DB0013449B000B4420330022A6
:103758001A60FA7B79681346DB0013449B000B441C
:10376800243300221A60FB7B0133FB737B681B79CF
:10377800FA7B9A42AFD30023FB7344E0FA7B796863
:103788001346DB0013449B000B4403F2552300222D
:103798001A70FA7B79681346DB0013449B000B44CC
:1037A80003F51573FA7B1A70FA7B79681346DB0008
:1037B80013449B000B4403F5167300221A70FA7B1E
:1037C80079681346DB0013449B000B4403F5177319
:1037D80000221A60FA7B79681346DB0013449B00C9
:1037E8000B4403F5187300221A60FA7B79681346B4
:1037F800DB0013449B000B4403F5197300221A6085
:10380800FB7B0133FB737B681B79FA7B9A42B5D348
:103818007B6818687B681A7C8DF8002004330ECB0F
:1038280004F06CFB0346002B05D07B68022283F86A
:10383800952401230CE07B6800225A747B680122DE
:1038480083F895247B681B68184605F0B6FB0023AF
:1038580018461037BD4680BD80B584B000AF78608B
:103868007B681B68FB607B6893F89434012B01D15B
:10387800022322E07B68012283F89424FB68DB683A
:1038880003F04003002B09D07B685B7B012B05D13B
:10389800FB689B6B43F48032FB689A637B681B6808
:1038A800184604F0BDFA7B681B68184605F064FBEF
:1038B8007B68002283F89424002318461037BD46FD
:1038C80080BD90B58DB000AF78607B681B683B62A7
:1038D8003B6AFB617B681B68184605F022FC0346BF
:1038E800002B40F08C847B681B68184605F086FB2B
:1038F8000346002B00F08284FB6903F500639B6894
:103908001B0AC3F30D027B68C3F8D4247B681B68C9
:10391800184605F073FB034603F00203022B07D198
:103928007B681B685A697B681B6802F002025A614F
:103938007B681B68184605F061FB034603F010031B
:10394800102B61D17B681B689A697B681B6822F021
:1039580010029A613B6A1B6ABB61BB6903F00F02E4
:103968001346DB0013449B0003F514737A68134471
:1039780004337B61BB695B0C03F00F03022B24D17A
:10398800BA6947F6F0731340002B35D07B69D968C4
:10399800BB691B099BB2C3F30A039BB21A46386A78
:1039A80005F098F97B69DA68BB691B09C3F30A0358
:1039B8001A447B69DA607B695A69BB691B09C3F3DE
:1039C8000A031A447B695A6116E0BB695B0C03F071
:1039D8000F03062B10D17B6803F29C43082219467B
:1039E800386A05F077F97B695A69BB691B09C3F323
:1039F8000A031A447B695A617B681B689A697B6869
:103A08001B6842F010029A617B681B68184605F033
:103A1800F5FA034603F40023B3F5002F40F0A7801E
:103A280000237B627B681B68184605F0FAFAB862C7
:103A380099E0BB6A03F00103002B00F08E807B68DD
:103A48001B687A6AD2B21146184605F01EFB386127
:103A58003B6903F00103002B0CD07B6A5A01FB6918
:103A6800134403F530631A4601239360796A786832
:103A780000F0A4FE3B6903F00803002B0CD07B6A1E
:103A88005A01FB69134403F530631A46082393600F
:103A9800796A786800F07AFF3B6903F01003002B1D
:103AA80008D07B6A5A01FB69134403F530631A4650
:103AB800102393603B6903F00203002B30D03B6A6C
:103AC8005B6903F08003802B09D1FB6903F5006370
:103AD8005B68FA6902F5006243F4806353607A6AAE
:103AE8001346DB0013449B0003F514737A681344F0
:103AF80004337B617B69DB78012B08D17B69002269
:103B0800DA707B6ADBB21946786807F065FE7B6A73
:103B18005A01FB69134403F530631A460223936084
:103B28003B6903F02003002B08D07B6A5A01FB692C
:103B3800134403F530631A46202393603B6903F46A
:103B48000053002B09D07B6A5A01FB69134403F523
:103B580030631A464FF4005393607B6A01337B62EB
:103B6800BB6A5B08BB62BB6A002B7FF462AF7B68F1
:103B78001B68184605F042FA034603F48023B3F5A0
:103B8800802F40F0DB807B681B68184605F063FADD
:103B9800B86200237B62CDE0BB6A03F00103002B0F
:103BA80000F0C2807B681B687A6AD2B21146184658
:103BB80005F089FA38613B6903F00103002B57D0FF
:103BC8007B6A03F00F03012202FA03F3FB60FB692F
:103BD80003F500635A6BFB68DB43F96901F5006183
:103BE80013404B637B6A5A01FB69134403F5106366
:103BF8001A46012393607B689B79012B32D179683F
:103C08007A6A1346DB0013449B000B44203319687F
:103C180078687A6A1346DB0013449B0003441C331C
:103C28001B68194478687A6A1346DB0013449B00C2
:103C38000344203319607B6A002B13D179687A6AB0
:103C48001346DB0013449B000B4424331B68002BF2
:103C580008D17B6818687B6803F29C431A460121E7
:103C680005F090FA7B6ADBB21946786807F02FFDF9
:103C78003B6903F00803002B08D07B6A5A01FB69F3
:103C8800134403F510631A46082393603B6903F055
:103C98001003002B08D07B6A5A01FB69134403F513
:103CA80010631A46102393603B6903F04003002B0E
:103CB80008D07B6A5A01FB69134403F510631A465E
:103CC800402393603B6903F00203002B23D0796AF9
:103CD800386A04F077FA7A6A1346DB0013449B00CB
:103CE80010337A68134404337B617B69DB78012BDA
:103CF80008D17B690022DA707B6ADBB219467868E2
:103D080007F07CFD7B6A5A01FB69134403F51063D5
:103D18001A46022393603B6903F08003002B03D00B
:103D2800796A786800F0BDFC7B6A01337B62BB6A04
:103D38005B08BB62BB6A002B7FF42EAF7B681B68F5
:103D4800184605F05BF9034603F00043B3F1004F52
:103D580022D1FB6903F500635B68FA6902F500622A
:103D680023F0010353607B6893F8CC34012B08D10E
:103D78007B68002283F8CC240021786800F0A4FE38
:103D880002E0786807F01AFD7B681B685A697B684F
:103D98001B6802F000425A617B681B68184605F0F0
:103DA8002DF9034603F40063B3F5006F12D1FB69E4
:103DB80003F500639B6803F00103012B02D17868C7
:103DC80007F0D6FC7B681B685A697B681B6802F49D
:103DD80000625A617B681B68184605F00FF90346B4
:103DE80003F48053B3F5805F40F0B780FB6903F5B7
:103DF80000635B68FA6902F5006223F0010353600F
:103E08007B681B681021184604F0DCF90023FB626C
:103E180046E0FB6A5A01FB69134403F510631A462E
:103E28004FF67F339360FB6A5A01FB69134403F52D
:103E380010631B68FA6A5101FA690A4402F51062B4
:103E480023F400131360FB6A5A01FB69134403F55A
:103E580030631A464FF67F339360FB6A5A01FB6959
:103E6800134403F530631B68FA6A5101FA690A447E
:103E780002F5306223F400131360FB6A5A01FB69F0
:103E8800134403F530631B68FA6A5101FA690A445E
:103E980002F5306243F000631360FB6A0133FB6292
:103EA8007B681B791A46FB6A9342B2D3FB6903F518
:103EB8000063DB69FA6902F5006243F00113D3611C
:103EC8007B68DB7B002B16D0FB6903F50063D3F816
:103ED8008430FA6902F5006243F00B03C2F88430BB
:103EE800FB6903F500635B6CFA6902F5006243F055
:103EF8000B03536415E0FB6903F500635B69FA691A
:103F080002F5006243F4005343F02B035361FB694D
:103F180003F500631B69FA6902F5006243F00B03BD
:103F28001361FB6903F500631B68FA6902F5006217
:103F380023F4FE6313607B6818687B6899797B6853
:103F480003F29C431A4605F01DF97B681B685A6901
:103F58007B681B6802F480525A617B681B681846AC
:103F680005F04CF8034603F40053B3F5005F23D182
:103F78007B681B68184605F0E2F87B681B681846E2
:103F880004F099F903461A467B68DA717B681C6865
:103F980001F00AFA01467B68DB791A46204603F0ED
:103FA8009DFE786807F0BBFB7B681B685A697B68D5
:103FB8001B6802F400525A617B681B68184605F0BA
:103FC8001DF8034603F00803082B0AD1786807F0A8
:103FD80098FB7B681B685A697B681B6802F00802BB
:103FE8005A617B681B68184605F008F8034603F019
:103FF8008003802B23D13B6A9B6923F080023B6AB4
:104008009A6101237B6214E079687A6A1346DB00BF
:1040180013449B000B4403F257231B78012B05D153
:104028007B6ADBB21946786800F00AFB7B6A0133C9
:104038007B627B681B791A467B6A9342E4D37B6870
:104048001B68184604F0DAFF034603F48013B3F53F
:10405800801F3CD101237B622BE07B6A5A01FB69FC
:10406800134403F510631B68BB6179687A6A1346C9
:10407800DB0013449B000B4418331B78012B15D12C
:10408800BB69002B12DA79687A6A1346DB0013449D
:104098009B000B44173301221A707B6ADBB263F072
:1040A8007F03DBB21946786800F0CAFA7B6A0133ED
:1040B8007B627B681B791A467B6A9342CDD37B6807
:1040C8001B685A697B681B6802F480125A617B6816
:1040D8001B68184604F092FF034603F40013B3F577
:1040E800001F56D101237B6245E07B6A5A01FB69B8
:1040F800134403F530631B68BB6179687A6A134619
:10410800DB0013449B000B4403F516731B78012B4B
:104118002ED1BB69002B2BDABB691A0C7B68D3F84C
:10412800D434534003F00103002B21D179687A6A13
:104138001346DB0013449B000B4403F25723012270
:104148001A703B6A9B6943F080023B6A9A613B6A3A
:104158005B6903F08003002B0AD1FB6903F5006358
:104168005B68FA6902F5006243F40073536008E083
:104178007B6A01337B627B681B791A467B6A9342B0
:10418800B3D37B681B685A697B681B6802F400120A
:104198005A617B681B68184604F030FF034603F039
:1041A8008043B3F1804F0AD1786807F039FB7B6808
:1041B8001B685A697B681B6802F080425A617B68F9
:1041C8001B68184604F01AFF034603F00403042B87
:1041D80015D17B681B685B68BB61BB6903F004038E
:1041E800002B02D0786807F029FB7B681B685968A8
:1041F8007B681B68BA690A435A6000E000BF34371D
:10420800BD4690BD80B582B000AF78600B46FB70AC
:104218007B6893F89434012B01D1022312E07B6868
:10422800012283F894247B68FA785A747B681B68A7
:10423800FA781146184604F079FE7B68002283F864
:104248009424002318460837BD4680BD80B584B045
:1042580000AF7860084611461A460346FB700B46C5
:104268003B801346BB700023FB7297F90330002B89
:104278000FDAFB7803F00F021346DB0013449B00B0
:1042880010337A6813440433FB60FB6801225A70C8
:104298000FE0FB7803F00F021346DB0013449B008A
:1042A80003F514737A6813440433FB60FB68002237
:1042B8005A70FB7803F00F03DAB2FB681A703B8878
:1042C800C3F30A02FB689A60FB68BA781A71FB6844
:1042D8005B78002B04D0FB681B781A46FB685A836E
:1042E800BB78022B02D1FB6800225A717B6893F8D5
:1042F8009434012B01D102230EE07B68012283F85C
:1043080094247B681B68F968184603F0F9FF7B68FA
:10431800002283F89424FB7A18461037BD4680BDE6
:1043280080B584B000AF78600B46FB7097F9033016
:10433800002B0FDAFB7803F00F021346DB0013445F
:104348009B0010337A6813440433FB60FB68012236
:104358005A700FE0FB7803F00F021346DB0013449A
:104368009B0003F514737A6813440433FB60FB68FD
:1043780000225A70FB7803F00F03DAB2FB681A7058
:104388007B6893F89434012B01D102230EE07B68FB
:10439800012283F894247B681B68F968184604F0A6
:1043A80037F87B68002283F89424002318461037D6
:1043B800BD4680BD80B586B000AFF8607A603B60CE
:1043C8000B46FB72FB7A03F00F021346DB00134423
:1043D8009B0003F51473FA68134404337B617B690B
:1043E8007A68DA607B693A681A617B6900225A61E7
:1043F8007B6900225A70FB7A03F00F03DAB27B69FB
:104408001A70FB689B79012B02D17A687B69DA61A3
:10441800FB681868FB689B791A46796904F0D4F838
:10442800002318461837BD4680BD80B483B000AF5E
:1044380078600B46FB70FB7803F00F02796813462F
:10444800DB0013449B000B4403F51A731B681846E2
:104458000C37BD465DF8047B704780B586B000AF69
:10446800F8607A603B600B46FB72FB7A03F00F0240
:104478001346DB0013449B001033FA6813440433DB
:104488007B617B697A68DA607B693A681A617B6963
:1044980000225A617B6901225A70FB7A03F00F03EC
:1044A800DAB27B691A70FB689B79012B02D17A68B2
:1044B8007B69DA61FB681868FB689B791A46796939
:1044C80004F082F8002318461837BD4680BD80B531
:1044D80084B000AF78600B46FB70FB7803F00F03E5
:1044E8007A681279934201D901234FE097F9033092
:1044F800002B0FDAFB7803F00F021346DB0013449E
:104508009B0010337A6813440433FB60FB68012274
:104518005A700DE0FA781346DB0013449B0003F54C
:1045280014737A6813440433FB60FB6800225A70E2
:10453800FB6801229A70FB7803F00F03DAB2FB687C
:104548001A707B6893F89434012B01D102231DE083
:104558007B68012283F894247B681B68F9681846F5
:1045680004F010FCFB7803F00F03002B09D17B68E3
:1045780018687B6899797B6803F29C431A4604F0B3
:1045880001FE7B68002283F8942400231846103724
:10459800BD4680BD80B584B000AF78600B46FB7027
:1045A800FB7803F00F037A681279934201D901234B
:1045B80042E097F90330002B0FDAFB7803F00F0283
:1045C8001346DB0013449B0010337A68134404330A
:1045D800FB60FB6801225A700FE0FB7803F00F02C2
:1045E8001346DB0013449B0003F514737A681344E5
:1045F8000433FB60FB6800225A70FB6800229A7043
:10460800FB7803F00F03DAB2FB681A707B6893F843
:104618009434012B01D102230EE07B68012283F838
:1046280094247B681B68F968184604F019FC7B68B9
:10463800002283F89424002318461037BD4680BD15
:1046480080B584B000AF78600B46FB7097F90330F3
:10465800002B0CDAFB7803F00F021346DB0013443F
:104668009B0010337A6813440433FB600CE0FB783A
:1046780003F00F021346DB0013449B0003F5147389
:104688007A6813440433FB607B681B68F968184632
:1046980004F038FA0346FB72FB7A18461037BD4619
:1046A80080BD80B58AB002AF786039607B681B68CE
:1046B8007B617B693B613A681346DB0013449B00CE
:1046C80010337A6813440433FB60FB685A69FB684B
:1046D8001B699A4201D901236BE0FB681A69FB68E0
:1046E8005B69D31AFB61FB689B68FA699A4202D935
:1046F800FB689B68FB61FB6903339B08BB612AE08D
:10470800FB681A69FB685B69D31AFB61FB689B68E5
:10471800FA699A4202D9FB689B68FB61FB6903331B
:104728009B08BB61FB68D9683B68DAB2FB6998B241
:104738007B689B7900930346786904F08DFAFB68DF
:10474800DA68FB691A44FB68DA60FB685A69FB6936
:104758001A44FB685A613B685A013B69134403F5E4
:1047680010639B699BB2BA699A4209D8FB685A6977
:10477800FB681B699A4203D2FB681B69002BBFD1F7
:10478800FB681A69FB685B699A4211D83B6803F0B9
:104798000F03012202FA03F3BB603B6903F50063D0
:1047A8005A6BBB68DB43396901F5006113404B6301
:1047B800002318462037BD4680BD000080B588B06C
:1047C80000AF786039607B681B68FB61FB69BB617F
:1047D800FB693C3304331B687B613B685A01BB6946
:1047E800134403F530639B683B617B689B79012B1D
:1047F8007BD13B6903F00803002B15D07B69614A24
:10480800934240F2B9803B6903F40043002B00F067
:10481800B3803B685A01BB69134403F530631A46F9
:104828004FF400439360A7E03B6903F02003002B9B
:1048380009D03B685A01BB69134403F530631A4633
:104848002023936098E03B6903F02803002B40F095
:1048580093807B694B4A93420FD93B6903F4004329
:10486800002B0AD03B685A01BB69134403F5306337
:104878001A464FF4004393607EE03A681346DB0023
:1048880013449B0003F514737A6813440433FB60E4
:10489800FB681A6A3B685901BB690B4403F530632E
:1048A8001B69C3F31203D21AFB685A613B68002BD9
:1048B80014D1FB681B69002B09D17B6818687B68D9
:1048C80003F29C431A46012104F05CFC06E0FB68F5
:1048D800DA68FB685B691A44FB68DA603B68DBB23C
:1048E8001946786806F0D8FE46E07B69264A934266
:1048F80024D13B6903F40043002B0AD03B685A01DA
:10490800BB69134403F530631A464FF400439360C0
:1049180032E03B6903F02003002B08D03B685A01C2
:10492800BB69134403F530631A46202393603B6840
:10493800DBB21946786806F0AFFE1DE03B68002B35
:1049480014D179683A681346DB0013449B000B4482
:1049580003F519731B68002B08D17B6818687B68FE
:1049680003F29C431A46002104F00CFC3B68DBB2BE
:104978001946786806F090FE002318462037BD4691
:1049880080BD00BF0A30544F0A31544F80B586B0FD
:1049980000AF786039607B681B687B617B693B612D
:1049A8007B693C3304331B68FB603B685A013B69F5
:1049B800134403F530639B68BB60FB68154A934258
:1049C8000ED9BB6803F40043002B09D03B685A0199
:1049D8003B69134403F530631A464FF40043936070
:1049E800786806F047FEFB680A4A93420CD97B6850
:1049F8009B79012B08D17B6818687B6803F29C437C
:104A08001A46012104F0BEFB002318461837BD469C
:104A180080BD00BF0A30544F80B485B000AF7860C5
:104A28000B46FB7013463B807B681B685B6ABB6068
:104A3800FB78002B07D13B8819047B681B68BA6890
:104A48000A439A6228E07B681B689B6A1B0CBA6859
:104A58001344BB600023FB730DE07B681A68FB7B83
:104A680040339B0013445B681B0CBA681344BB605B
:104A7800FB7B0133FB73FA7BFB78013B9A42ECD357
:104A88003B8818047B681968FB78013BBA680243C5
:104A980040339B000B445A60002318461437BD4628
:104AA8005DF8047B704780B483B000AF78600B4634
:104AB8007B807B681B687A885A62002318460C370B
:104AC800BD465DF8047B704780B483B000AF786062
:104AD8000B46FB7000BF0C37BD465DF8047B704782
:104AE80080B586B000AF78607B68002B01D10123C8
:104AF80067E27B681B6803F00103002B75D0884BC5
:104B08009B6803F00C03042B0CD0854B9B6803F0C7
:104B18000C03082B12D1824B5B6803F48003B3F5B6
:104B2800800F0BD17E4B1B6803F40033002B5BD046
:104B38007B685B68002B57D1012342E27B685B6886
:104B4800B3F5803F06D1764B1B68754A43F4803332
:104B580013601DE07B685B68B3F5A02F0CD1704B28
:104B68001B686F4A43F4802313606D4B1B686C4AC3
:104B780043F4803313600BE0694B1B68684A23F4E5
:104B880080331360664B1B68654A23F480231360E7
:104B98007B685B68002B13D0FDF73EFE386108E0A8
:104BA800FDF73AFE02463B69D31A642B01D9032369
:104BB80007E25B4B1B6803F40033002BF0D014E0D2
:104BC800FDF72AFE386108E0FDF726FE02463B693C
:104BD800D31A642B01D90323F3E1514B1B6803F467
:104BE8000033002BF0D100E000BF7B681B6803F0A6
:104BF8000203002B63D04A4B9B6803F00C03002B85
:104C08000BD0474B9B6803F00C03082B1CD1444B7B
:104C18005B6803F48003002B16D1414B1B6803F03B
:104C28000203002B05D07B68DB68012B01D0012330
:104C3800C7E13B4B1B6823F0F8027B681B69DB006C
:104C4800374913430B603AE07B68DB68002B20D0C0
:104C5800344B01221A60FDF7DFFD386108E0FDF7EB
:104C6800DBFD02463B69D31A022B01D90323A8E1D5
:104C78002B4B1B6803F00203002BF0D0284B1B685A
:104C880023F0F8027B681B69DB00254913430B609E
:104C980015E0244B00221A60FDF7BEFD386108E0DC
:104CA800FDF7BAFD02463B69D31A022B01D903234B
:104CB80087E11B4B1B6803F00203002BF0D17B68D4
:104CC8001B6803F00803002B36D07B685B69002B58
:104CD80016D0154B01221A60FDF79EFD386108E0D9
:104CE800FDF79AFD02463B69D31A022B01D903232B
:104CF80067E10B4B5B6F03F00203002BF0D01BE066
:104D0800094B00221A60FDF787FD38610EE0FDF7B8
:104D180083FD02463B69D31A022B07D9032350E1CE
:104D28000038024000004742800E4742884B5B6FC4
:104D380003F00203002BEAD17B681B6803F004032D
:104D4800002B00F097800023FB75814B1B6C03F050
:104D58008053002B0FD10023BB607D4B1B6C7C4A1A
:104D680043F0805313647A4B1B6C03F08053BB6091
:104D7800BB680123FB75774B1B6803F48073002B1A
:104D880018D1744B1B68734A43F480731360FDF7A2
:104D980043FD386108E0FDF73FFD02463B69D31A41
:104DA800022B01D903230CE16A4B1B6803F48073BF
:104DB800002BF0D07B689B68012B06D1644B1B6FDE
:104DC800634A43F0010313671CE07B689B68052B6B
:104DD8000CD15F4B1B6F5E4A43F0040313675C4BB7
:104DE8001B6F5B4A43F0010313670BE0584B1B6FC3
:104DF800574A23F001031367554B1B6F544A23F09E
:104E0800040313677B689B68002B15D0FDF704FD2E
:104E180038610AE0FDF700FD02463B69D31A41F20A
:104E28008832934201D90323CBE0494B1B6F03F02F
:104E38000203002BEED014E0FDF7EEFC38610AE027
:104E4800FDF7EAFC02463B69D31A41F288329342E5
:104E580001D90323B5E03E4B1B6F03F00203002B7F
:104E6800EED1FB7D012B05D1394B1B6C384A23F061
:104E7800805313647B689B69002B00F0A180344B3E
:104E88009B6803F00C03082B5CD07B689B69022BA2
:104E980041D1314B00221A60FDF7BEFC386108E0B1
:104EA800FDF7BAFC02463B69D31A022B01D903234A
:104EB80087E0274B1B6803F00073002BF0D17B6859
:104EC800DA697B681B6A1A437B685B6A9B011A4331
:104ED8007B689B6A5B08013B1B041A437B68DB6A9F
:104EE8001B061B4913434B601B4B01221A60FDF73D
:104EF80093FC386108E0FDF78FFC02463B69D31A42
:104F0800022B01D903235CE0114B1B6803F00073EB
:104F1800002BF0D054E0104B00221A60FDF77CFC07
:104F2800386108E0FDF778FC02463B69D31A022B8A
:104F380001D9032345E0064B1B6803F00073002BDF
:104F4800F0D13DE07B689B69012B07D1012338E054
:104F58000038024000700040600047421B4B5B680D
:104F6800FB607B689B69012B28D0FB6803F48002F7
:104F78007B68DB699A4221D1FB6803F03F027B68BA
:104F88001B6A9A421AD1FA6847F6C07313407A68C6
:104F9800526A9201934211D1FB6803F440327B6854
:104FA8009B6A5B08013B1B049A4207D1FB6803F02C
:104FB80070627B68DB6A1B069A4201D0012300E01D
:104FC800002318461837BD4680BD00BF0038024090
:104FD80080B584B000AF786039607B68002B01D160
:104FE8000123CCE0684B1B6803F007033A689A4238
:104FF8000CD9654B3A68D2B21A70634B1B6803F040
:1050080007033A689A4201D00123B8E07B681B681D
:1050180003F00203002B20D07B681B6803F0040315
:10502800002B05D0594B9B68584A43F4E0539360D2
:105038007B681B6803F00803002B05D0534B9B6863
:10504800524A43F460439360504B9B6823F0F0024C
:105058007B689B684D4913438B607B681B6803F032
:105068000103002B44D07B685B68012B07D1474BB9
:105078001B6803F40033002B19D101237FE07B6800
:105088005B68022B03D07B685B68032B07D13F4B1F
:105098001B6803F00073002B09D101236FE03B4B21
:1050A8001B6803F00203002B01D1012367E0374B93
:1050B8009B6823F003027B685B68344913438B6069
:1050C800FDF7AAFBF8600AE0FDF7A6FB0246FB68BD
:1050D800D31A41F28832934201D903234FE02B4B74
:1050E8009B6803F00C027B685B689B009A42EBD1DB
:1050F800254B1B6803F007033A689A420CD2224BEF
:105108003A68D2B21A70204B1B6803F007033A685A
:105118009A4201D0012332E07B681B6803F0040344
:10512800002B08D0194B9B6823F4E0527B68DB689E
:10513800164913438B607B681B6803F00803002B38
:1051480009D0124B9B6823F460427B681B69DB0023
:105158000E4913438B6000F021F802460B4B9B6805
:105168001B0903F00F030A49CB5C22FA03F3094A2F
:105178001360094B1B681846FDF70AFB0023184605
:105188001037BD4680BD00BF003C024000380240D9
:1051980078CA0008B0000020B40000202DE9B04F04
:1051A80094B000AF00237B640023FB6400233B64BE
:1051B8000023BB64794B9B6803F00C03082B0DD0CC
:1051C800082B00F2E180002B02D0042B03D0DBE097
:1051D800734BBB64DBE0734BBB64D8E06F4B5B681D
:1051E80003F03F037B646D4B5B6803F48003002B83
:1051F80063D06A4B5B689B090022BB63FA63BB6B95
:10520800C3F308033B6300237B63D7E90C452246BD
:105218002B464FF000004FF00001590141EAD261DE
:10522800500102460B462146511A3961294663EB63
:1052380001037B614FF000024FF00003D7E904AB94
:1052480059468B01514643EA916351468A015146BA
:10525800B2EB0108594663EB01094FF000024FF029
:1052680000034FEAC90343EA58734FEAC80290465D
:105278009946234618EB0303BB602B4649EB03030F
:10528800FB604FF000024FF00003D7E902452946C2
:105298004B02214643EAD15321464A021046194699
:1052A8007B6C0022BB62FA62D7E90A23FAF788FF0F
:1052B80002460B461346FB6458E0384B5B689B0973
:1052C800002218461146C0F308033B6200237B62A4
:1052D800D7E9088942464B464FF000004FF00001DD
:1052E800590141EAD261500102460B464146B2EBF0
:1052F800010A494663EB010B4FF000024FF000032F
:105308004FEA8B1343EA9A634FEA8A12B2EB0A0414
:1053180063EB0B054FF000024FF00003EB0043EA8C
:105328005473E20014461D464346E3183B604B465F
:1053380045EB03037B604FF000024FF00003D7E911
:10534800004529468B02214643EA915321468A02A9
:10535800104619467B6C0022BB61FA61D7E9062327
:10536800FAF72EFF02460B461346FB640B4B5B68AD
:105378001B0C03F0030301335B003B64FA6C3B6CCA
:10538800B2FBF3F3BB6402E0054BBB6400BFBB6C2C
:1053980018465037BD46BDE8B08F00BF0038024000
:1053A8000024F40000127A0080B400AF034B1B689D
:1053B8001846BD465DF8047B704700BFB00000206A
:1053C80080B500AFFFF7F0FF0246054B9B689B0ACC
:1053D80003F007030349CB5C22FA03F3184680BDA8
:1053E8000038024088CA000880B500AFFFF7DCFF2C
:1053F8000246054B9B685B0B03F007030349CB5C34
:1054080022FA03F3184680BD0038024088CA000813
:1054180080B582B000AF78607B68002B01D1012392
:1054280041E07B6893F83D30DBB2002B06D17B6806
:10543800002283F83C207868FCF73CFF7B68022256
:1054480083F83D207B681A687B6804331946104648
:1054580000F01EFD7B68012283F846207B6801224C
:1054680083F83E207B68012283F83F207B68012275
:1054780083F840207B68012283F841207B68012261
:1054880083F842207B68012283F843207B6801224D
:1054980083F844207B68012283F845207B68012239
:1054A80083F83D20002318460837BD4680BD00001C
:1054B80080B485B000AF78607B6893F83D30DBB28C
:1054C800012B01D001234EE07B68022283F83D20A6
:1054D8007B681B68DA687B681B6842F00102DA6047
:1054E8007B681B68234A934222D07B681B68B3F110
:1054F800804F1DD07B681B681F4A934218D07B6879
:105508001B681E4A934213D07B681B681C4A93424F
:105518000ED07B681B681B4A934209D07B681B68C6
:10552800194A934204D07B681B68184A934211D1E8
:105538007B681B689B6803F00703FB60FB68062B0E
:1055480010D07B681B681A687B681B6842F00102F0
:105558001A6007E07B681B681A687B681B6842F062
:1055680001021A60002318461437BD465DF8047B13
:10557800704700BF000001400004004000080040E0
:10558800000C0040000401400040014000180040A9
:1055980080B582B000AF78607B68002B01D1012311
:1055A80041E07B6893F83D30DBB2002B06D17B6885
:1055B800002283F83C20786800F039F87B680222E2
:1055C80083F83D207B681A687B68043319461046C7
:1055D80000F05EFC7B68012283F846207B6801228C
:1055E80083F83E207B68012283F83F207B680122F4
:1055F80083F840207B68012283F841207B680122E0
:1056080083F842207B68012283F843207B680122CB
:1056180083F844207B68012283F845207B680122B7
:1056280083F83D20002318460837BD4680BD80B466
:1056380083B000AF786000BF0C37BD465DF8047BCF
:105648007047000080B584B000AF786039603B686F
:10565800002B09D17B6893F83E30DBB2012B14BFD5
:1056680001230023DBB222E03B68042B09D17B68CD
:1056780093F83F30DBB2012B14BF01230023DBB2C8
:1056880015E03B68082B09D17B6893F84030DBB202
:10569800012B14BF01230023DBB208E07B6893F8D9
:1056A8004130DBB2012B14BF01230023DBB2002BF6
:1056B80001D001237CE03B68002B04D17B680222E7
:1056C80083F83E2013E03B68042B04D17B68022258
:1056D80083F83F200BE03B68082B04D17B6802224B
:1056E80083F8402003E07B68022283F841207B682E
:1056F8001B6801223968184600F04BFF7B681B685D
:105708002D4A934204D07B681B682C4A934201D1EE
:10571800012300E00023002B07D07B681B685A6C2C
:105728007B681B6842F400425A647B681B68224A03
:10573800934222D07B681B68B3F1804F1DD07B68F1
:105748001B681F4A934218D07B681B681D4A934206
:1057580013D07B681B681C4A93420ED07B681B6879
:10576800164A934209D07B681B68184A934204D0B2
:105778007B681B68164A934211D17B681B689B683B
:1057880003F00703FB60FB68062B10D07B681B68DF
:105798001A687B681B6842F001021A6007E07B68A0
:1057A8001B681A687B681B6842F001021A600023B4
:1057B80018461037BD4680BD000001400004014076
:1057C8000004004000080040000C00400040014078
:1057D8000018004080B582B000AF786039607B68FF
:1057E8001B6800223968184600F0D3FE7B681B68E6
:1057F8002E4A934204D07B681B682D4A934201D1FC
:10580800012300E00023002B17D07B681B681A6A6D
:1058180041F211131340002B0FD17B681B681A6AE1
:1058280040F244431340002B07D17B681B685A6C35
:105838007B681B6822F400425A647B681B681A6AFA
:1058480041F211131340002B0FD17B681B681A6AB1
:1058580040F244431340002B07D17B681B681A6849
:105868007B681B6822F001021A603B68002B04D198
:105878007B68012283F83E2013E03B68042B04D1A7
:105888007B68012283F83F200BE03B68082B04D19A
:105898007B68012283F8402003E07B68012283F8BB
:1058A8004120002318460837BD4680BD000001404E
:1058B8000004014080B584B000AF78607B681B6845
:1058C800DB68FB607B681B681B69BB60BB6803F017
:1058D8000203002B20D0FB6803F00203002B1BD02F
:1058E8007B681B686FF002021A617B6801221A77D5
:1058F8007B681B689B6903F00303002B03D078685F
:1059080000F0A7FA05E0786800F099FA786800F0E6
:10591800AAFA7B6800221A77BB6803F00403002BFD
:1059280020D0FB6803F00403002B1BD07B681B68A6
:105938006FF004021A617B6802221A777B681B6881
:105948009B6903F44073002B03D0786800F081FA58
:1059580005E0786800F073FA786800F084FA7B68EC
:1059680000221A77BB6803F00803002B20D0FB68DD
:1059780003F00803002B1BD07B681B686FF008023C
:105988001A617B6804221A777B681B68DB6903F05D
:105998000303002B03D0786800F05BFA05E0786811
:1059A80000F04DFA786800F05EFA7B6800221A77FA
:1059B800BB6803F01003002B20D0FB6803F0100332
:1059C800002B1BD07B681B686FF010021A617B6884
:1059D80008221A777B681B68DB6903F44073002B85
:1059E80003D0786800F035FA05E0786800F027FA07
:1059F800786800F038FA7B6800221A77BB6803F0F1
:105A08000103002B0CD0FB6803F00103002B07D027
:105A18007B681B686FF001021A61786800F005FA6C
:105A2800BB6803F08003002B0CD0FB6803F08003F5
:105A3800002B07D07B681B686FF080021A617868BA
:105A480000F0A4FEBB6803F04003002B0CD0FB68F9
:105A580003F04003002B07D07B681B686FF04002FF
:105A68001A61786800F009FABB6803F02003002B7C
:105A78000CD0FB6803F02003002B07D07B681B6861
:105A88006FF020021A61786800F076FE00BF1037C8
:105A9800BD4680BD80B586B000AFF860B9607A6059
:105AA8000023FB75FB6893F83C30012B01D10223DE
:105AB800AEE0FB68012283F83C207B680C2B00F2E7
:105AC8009F8001A252F823F0055B0008095C0008DA
