:020000040800F2
:103000000050002085690008156400081D64000850
:10301000256400082D6400083564000800000000E5
:103020000000000000000000000000003D640008F7
:10303000496400080000000055640008616400084D
:10304000CD690008CD690008CD690008CD69000888
:10305000CD690008CD690008CD690008CD69000878
:10306000CD690008CD690008CD690008CD69000868
:10307000CD690008CD690008CD690008CD69000858
:10308000CD690008CD6900086D640008CD690008AD
:1030900061320008CD690008CD690008CD690008DB
:1030A000CD690008CD690008CD690008CD69000828
:1030B000D54B00085D4B0008CD690008CD690008BC
:1030C000CD690008CD690008CD690008CD69000808
:1030D000CD690008CD690008CD690008E1A90008A4
:1030E000CD690008CD690008CD6900080000000026
:1030F00000000000000000000000000000000000D0
:0C31000000000000000000005FF808F173
:1031100010B5054C237833B9044B13B10448AFF311
:1031200000800123237010BDF8180020000000006B
:103130009CB1000808B5034B1BB103490348AFF32A
:10314000008008BD00000000FC1800209CB10008B1
:1031500080B584B000AF1D4B002283F8C02F1B4BFD
:10316000002283F8C12F194B002283F8C22F184880
:1031700004F064F90023FB8106E0FB89154AFF2176
:10318000D154FB890133FB81FB8940F2DB5293422E
:10319000F3D90F237B600023BB600DE00E4ABB68B0
:1031A00052F823200C4B1B68D31ABA68D1B2094AD3
:1031B000D154BB680133BB60BA687B689A42EDD3D7
:1031C00000BF00BF1037BD4680BD00BFB41900204E
:1031D000902B002000100020F0B1000880B582B0D4
:1031E00000AF0F233B6000237B6029E0194A7B6816
:1031F0005361184B00229A61164B00225A62154BFC
:1032000000221A61144A7B6852F823305B01114A8C
:103210001360104B00225A600E4B4FF6E0729A601A
:103220000C4B0022DA600B4B0122DA61094B0122C0
:103230001A620849094804F038F87B6801337B605A
:103240007A683B689A42D1D300BF00BF0837BD46B9
:1032500080BD00BF68190020F0B10008902B00204D
:1032600090B583B000AF2F4B2F4A00212F4804F0B8
:10327000F8F92D4B1B682E4A13602B4B1B69DAB2F1
:103280002B4B1A71284B9B68DAB2294B5A710023D9
:10329000FB710BE0FA79FB7922498A5CD1B2244AAE
:1032A00013440A469A71FB790133FB71FA791E4B7C
:1032B0001B699A42EED31F4B93F8C23FDBB2013336
:1032C000DBB21C4A194682F8C21FFC2B20D8194BCE
:1032D00093F8C03FDBB2174A1B011344144A1C4643
:1032E00013460FCB84E80F00124B93F8C03FDBB2BC
:1032F000013319468B08104AA2FB0323DA08134650
:103300009B019B1A9B00CA1AD2B20A4B83F8C02FAA
:103310000A4B1B680133094A136000BF0C37BD46D6
:1033200090BD00BF4C19002030190020902B0020C8
:10333000A4190020B419002021088220541900206B
:1033400090B482B000AF78601E4B93F8C23FDBB2FE
:10335000002B01D100232FE01A4B93F8C13FDBB2C1
:103360007968184A1B0113440C460FCB84E80F0000
:10337000144B93F8C13FDBB2013319468B08124A54
:10338000A2FB0323DA0813469B019B1A9B00CA1A6F
:10339000D2B20C4B83F8C12F0A4B93F8C23FDBB279
:1033A000002B08D0074B93F8C23FDBB2013BDAB2E7
:1033B000044B83F8C22F012318460837BD4690BC42
:1033C000704700BFB41900202108822080B582B068
:1033D00000AF0346FB71FB79013B152B00F24A81DC
:1033E00001A252F823F000BF4134000875360008EE
:1033F0009F34000875360008FD3400085B3500086E
:1034000075360008753600087536000875360008F0
:10341000753600087536000875360008B93500089D
:1034200075360008753600087536000875360008D0
:10343000753600087536000875360008173600081E
:103440008F4B02221A708E4B10225A708C4B8122A5
:103450009A708B4B5522DA70894B55221A71884B22
:1034600055225A71864B55229A71854B5522DA7135
:10347000844B00229A60834B40F2DF721A60814BCA
:103480000022DA607F4B08221A617E4B00221A75F7
:103490007D4B7B4A7B497D4804F014F8EBE0784B88
:1034A00002221A70764B10225A70754B90229A7035
:1034B000734B5522DA70724B55221A71704B55229C
:1034C0005A716F4B55229A716D4B5522DA716D4BC3
:1034D00000229A606B4B40F2DF721A60694B002247
:1034E000DA60684B08221A61664B00221A75664B37
:1034F000634A6449654803F0E5FFBCE0604B022283
:103500001A705F4B85225A705D4B82229A705C4B19
:103510005522DA705A4B55221A71594B55225A715D
:10352000574B55229A71564B5522DA71554B002252
:103530009A60544B40F2DF721A60524B0022DA60FC
:10354000504B08221A614F4B00221A754E4B4C4AC1
:103550004C494E4803F0B6FF8DE0494B02221A70E9
:10356000474B28225A70464B02229A70444B5522F0
:10357000DA70434B55221A71414B55225A71404B18
:1035800055229A713E4B5522DA713E4B00229A60C9
:103590003C4B40F2DF721A603A4B0022DA60394B42
:1035A00008221A61374B00221A75374B344A3549C5
:1035B000364803F087FF5EE0314B02221A70304B31
:1035C00029225A702E4B02229A702D4B5522DA7006
:1035D0002B4B55221A712A4B55225A71284B5522D2
:1035E0009A71274B5522DA71264B00229A60254B9F
:1035F00040F2DF721A60234B0022DA60214B08226E
:103600001A61204B00221A751F4B1D4A1D491F4885
:1036100003F058FF2FE01A4B02221A70184B3E227B
:103620005A70174B80229A70154B5522DA70144B42
:1036300055221A71124B55225A71114B55229A710B
:103640000F4B5522DA710F4B00229A600D4B40F25E
:10365000DF721A600B4B0022DA600A4B08221A61F3
:10366000084B00221A75084B054A0649074803F023
:1036700029FF00E000BF00BF0837BD4680BD00BF86
:1036800060190020141900205C190020902B0020E4
:1036900080B582B000AF0346FB71FB79023B132B70
:1036A00000F22D8301A252F823F000BFFD3600087E
:1036B000FF3C00085B370008FF3C0008FF3C0008A7
:1036C000B93700081738000875380008DB380008DB
:1036D0003B390008B13900080F3A0008FF3C0008E8
:1036E0006D3A0008CB3A0008293B0008873B0008E8
:1036F000E53B0008553C0008A13C0008A64B03220E
:103700001A70A54B22225A70A34BF1229A70A24B39
:103710009522DA70A04B55221A719F4B55225A718F
:103720009D4B55229A719C4B5522DA719B4B00227E
:103730009A609A4B40F296721A60984B0022DA60B7
:10374000964B08221A61954B00221A75944B924AA7
:103750009249944803F0B6FED2E28F4B02221A70CF
:103760008D4B10225A708C4B03229A708A4B552233
:10377000DA70894B55221A71874B55225A71864B44
:1037800055229A71844B5522DA71844B00229A603B
:10379000824B40F296721A60804B0022DA607F4BB7
:1037A00008221A617D4B00221A757D4B7A4A7B49AB
:1037B0007C4803F087FEA3E2774B02221A70764B17
:1037C00010225A70744B02229A70734B0022DA70E6
:1037D000714B00221A71704B00225A716E4B0022FD
:1037E0009A716D4B0022DA716C4B00229A606B4B20
:1037F00040F296721A60694B0022DA60674B082229
:103800001A61664B00221A75654B634A6349654825
:1038100003F058FE74E2604B02221A705E4B2722BE
:103820005A705D4B01229A705B4B5522DA705A4BED
:1038300055221A71584B55225A71574B55229A717D
:10384000554B5522DA71554B00229A60534B40F28A
:1038500096721A60514B0022DA60504B08221A61AE
:103860004E4B00221A754E4B4B4A4C494D4803F0C3
:1038700029FE45E2484B06221A70474B27225A7010
:10388000454B02229A70484B1A78434BDA70464BEC
:103890005A78414B1A71444B9A783F4B5A71424BBC
:1038A000DA783D4B9A713C4B5522DA713B4B002242
:1038B0009A603A4B40F296721A60384B0022DA60F6
:1038C000364B08221A61354B00221A75344B324AA6
:1038D0003249344803F0F6FD12E22F4B05221A70EC
:1038E0002D4B31225A702C4B01229A702A4BFF2209
:1038F000DA70294B00221A712C4B1A78264B5A7118
:10390000254B55229A71244B5522DA71234B002204
:103910009A60224B40F296721A60204B0022DA60C5
:103920001E4B08221A611D4B00221A751C4B1A4AA5
:103930001A491C4803F0C6FDE2E1174B10221A7029
:10394000154B09225A70144B34229A70124B0022E4
:10395000DA70114B33221A710F4B00225A710E4B41
:1039600040229A710C4B0022DA710C4B00229A60B3
:103970000A4B40F296721A60084B0022DA60074B3D
:1039800008221A61054B00221A75054B024A0349A9
:10399000044803F097FDB3E16019002014190020DA
:1039A0005C190020902B00202C190020842C002072
:1039B000A44B21221A70A34B55225A70A14B5522B9
:1039C0009A70A04B5522DA709E4B55221A719D4B6E
:1039D00055225A719B4B55229A719A4B5522DA7196
:1039E000994B00229A60984B40F296721A60964B5F
:1039F0000022DA60944B08221A61934B00221A7558
:103A0000924B904A9049924803F05CFD78E18D4BCF
:103A100001221A708B4B37225A708A4B55229A70AA
:103A2000884B5522DA70874B55221A71854B5522E7
:103A30005A71844B55229A71824B5522DA71824B0E
:103A400000229A60804B40F296721A607E4B0022F0
:103A5000DA607D4B08221A617B4B00221A757B4B82
:103A6000784A79497A4803F02DFD49E1754B0222E5
:103A70001A70744B11225A70724B01229A70714B5A
:103A80005522DA706F4B55221A716E4B55225A71BE
:103A90006C4B55229A716B4B5522DA716A4B00229E
:103AA0009A60694B40F296721A60674B0022DA60A6
:103AB000654B08221A61644B00221A75634B614AF8
:103AC0006149634803F0FEFC1AE15E4B03221A7061
:103AD0005C4B22225A705B4BF1229A70594B872221
:103AE000DA70584B55221A71564B55225A71554B64
:103AF00055229A71534B5522DA71534B00229A602A
:103B0000514B40F296721A604F4B0022DA604E4BD6
:103B100008221A614C4B00221A754C4B494A4A49FB
:103B20004B4803F0CFFCEBE0464B30221A70454B7C
:103B300008225A70434B01229A70424B5522DA7088
:103B4000404B55221A713F4B55225A713D4B55221D
:103B50009A713C4B5522DA713B4B00229A603A4BEA
:103B600040F296721A60384B0022DA60364B082217
:103B70001A61354B00221A75344B324A32493448A7
:103B800003F0A0FCBCE02F4B10221A702D4B0C222E
:103B90005A702C4B3D229A702A4B4D22DA70294BD9
:103BA00043221A71274B4E225A71264B45229A7195
:103BB000244B5822DA71244B00229A60224B40F2A7
:103BC00096721A60204B0022DA601F4B08221A619D
:103BD0001D4B00221A751D4B1A4A1B491C4803F045
:103BE00071FC8DE0174B21221A70164B57225A7028
:103BF000144B52229A70134B4922DA70114B542203
:103C00001A71104B45225A710E4B32229A710D4B8C
:103C10003022DA710C4B00229A600B4B40F2967204
:103C20001A60094B0022DA60074B08221A61064B22
:103C300000221A75054B034A0349054803F042FC6C
:103C40005EE000BF60190020141900205C190020FC
:103C5000902B00202C4B07221A702B4B23225A70DA
:103C6000294B23229A70284B00229A71264BFD2261
:103C7000DA71264B00229A60244B40F296721A6049
:103C8000224B0022DA60214B08221A611F4B0022CE
:103C90001A751F4B1C4A1D491E4803F013FC2FE0E8
:103CA000194B21221A70184B00225A70164B102201
:103CB0009A70154B5522DA70134B55221A71124B1C
:103CC00055225A71104B55229A710F4B5522DA71B9
:103CD0000E4B00229A600D4B40F296721A600B4B0D
:103CE0000022DA60094B08221A61084B00221A757B
:103CF000074B054A0549074803F0E4FB00E000BF15
:103D000000BF0837BD4680BD60190020141900208F
:103D10005C190020902B002080B582B000AF0346D4
:103D2000FB71194AFB791370174B00225A70164B1E
:103D300000229A70144B0022DA70134B00221A7181
:103D4000114B00225A71104B00229A710E4B002227
:103D5000DA710E4B00229A600C4B40F241521A600D
:103D60000A4B0022DA60094B08221A61074B002235
:103D70001A75074B044A0549064803F0A3FB00BF28
:103D80000837BD4680BD00BF60190020141900200F
:103D90005C190020902B002080B584B000AF7860C3
:103DA000084611461A4603467B800B467B70134635
:103DB0003B700023FB73844B1B783A789A422BD0DC
:103DC000814A3B781370814B10221A707F4BFF227F
:103DD0005A707E4B36229A703B780133DAB27B4BB5
:103DE000DA707B681B78DAB2784B1A717B68013322
:103DF0001B78DAB2754B5A717B6802331B78DAB2E2
:103E0000724B9A717B6803331B78DAB26F4BDA71AD
:103E10006F4B00221A70AFE06D4B1B78102B3DD119
:103E20006A4B20221A707B887A6813441B78DAB2B6
:103E3000664B5A707B8801337A6813441B78DAB278
:103E4000624B9A707B8802337A6813441B78DAB22B
:103E50005E4BDA707B8803337A6813441B78DAB2DE
:103E60005A4B1A717B8804337A6813441B78DAB290
:103E7000564B5A717B8805337A6813441B78DAB243
:103E8000524B9A717B8806337A6813441B78DAB2F6
:103E90004E4BDA714E4B00221A703CE04C4B1B78B3
:103EA0002033DAB2494B1A707B887A6813441B7846
:103EB000DAB2464B5A707B8801337A6813441B7818
:103EC000DAB2424B9A707B8802337A6813441B78CB
:103ED000DAB23E4BDA707B8803337A6813441B787E
:103EE000DAB23A4B1A717B8804337A6813441B7830
:103EF000DAB2364B5A717B8805337A6813441B78E3
:103F0000DAB2324B9A717B8806337A6813441B7895
:103F1000DAB22E4BDA717B78042B2DD12C4B1B7827
:103F20002033DAB2294B1A707B887A6813441B78E5
:103F3000DAB2264B5A707B8801337A6813441B78B7
:103F4000DAB2224B9A707B8802337A6813441B786A
:103F5000DAB21E4BDA707B8803337A6813441B781D
:103F6000DAB21A4B1A71194B55225A71174B552256
:103F70009A71164B5522DA71FB7B0133FB73144B9C
:103F80001B780133DAB2124B1A70124B00221A70EE
:103F9000114B00229A60104B40F296721A600E4B41
:103FA0000022DA600C4B08221A610B4B00221A75B2
:103FB0000A4B064A08490A4803F084FA034B1B7867
:103FC00018461037BD4680BDDC1500206019002062
:103FD0007829002059190020141900205C190020AC
:103FE000902B002080B483B000AF7860524B1B78D8
:103FF000DBB2023B0A2B00F2898001A252F823F0C7
:104000002D4000080D41000845400008754000089B
:104010000D4100085D4000088D400008DD400008AB
:10402000F5400008D5400008D54000087B68DB79E2
:10403000622B6FD17B681B7AF12B6BD13F4B012236
:104040001A7067E07B68DB79502B65D17B681B7A3F
:10405000032B61D1394B01221A705DE07B68DB795B
:10406000502B5BD17B681B7A022B57D1334B01223B
:104070001A7053E07B68DB79C52B51D17B681B7AC2
:10408000022B4DD12D4B01221A7049E07B68DB7960
:10409000672B47D17B681B7A012B43D17B685B7A06
:1040A0001033DAB2264B1A707B689B7A1033DAB27F
:1040B000234B5A707B68DB7A1033DAB2204B9A704C
:1040C0007B681B7B1033DAB21D4BDA701B4B01226D
:1040D0001A7027E0194B01221A7028E07B68DB79FF
:1040E000672B21D17B681B7A022B1DD1134B012238
:1040F0001A7019E07B68DB79712B17D17B681B7A0A
:10410000012B13D10D4B01221A700FE00B4B002233
:104110001A700CE000BF0AE000BF08E000BF06E034
:1041200000BF04E000BF02E000BF00E000BF00BF2E
:104130000C37BD4680BC7047581900205919002023
:104140002C19002080B483B000AF786000BF0C371A
:10415000BD4680BC704780B483B000AF786000BFBC
:104160000C37BD4680BC704780B483B000AF786028
:1041700000BF0C37BD4680BC704780B483B000AF31
:10418000786000BF0C37BD4680BC704780B483B0F8
:1041900000AF786000BF0C37BD4680BC704780B46C
:1041A00083B000AF786000BF0C37BD4680BC70475D
:1041B00080B483B000AF786000BF0C37BD4680BCD0
:1041C000704780B483B000AF786000BF0C37BD4645
:1041D00080BC704780B483B000AF786000BF0C37FC
:1041E000BD4680BC704780B483B000AF786000BF2C
:1041F0000C37BD4680BC704780B483B000AF786098
:1042000000BF0C37BD4680BC704780B483B000AFA0
:10421000786000BF0C37BD4680BC704780B483B067
:1042200000AF786000BF0C37BD4680BC704780B4DB
:1042300083B000AF786000BF0C37BD4680BC7047CC
:1042400080B483B000AF786000BF0C37BD4680BC3F
:10425000704780B483B000AF786000BF0C37BD46B4
:1042600080BC704780B582B000AF7860396000F0E4
:104270001DFB00BF0837BD4680BD000080B400AF05
:104280000B4BFF229A710A4B0A4ADA60084B094A23
:104290001A61074B00221A71074A53796FF3000322
:1042A0005371054B00221A7100BFBD4680BC704798
:1042B000802A002080290020982A002080B500AFA5
:1042C000FFF7DCFF00F086F900BF80BD80B500AFCE
:1042D000164B02221A71154B1B79022B24D1134B5A
:1042E00004221A71114B1B68DB78012B06D1104A8E
:1042F000937B022161F30103937305E00C4A937BE6
:10430000012161F301039373084B1B68DB681A7882
:10431000084B5A70084B04221A80044B1B681A89F8
:10432000034B9A8000F00AF800BF80BD982A002055
:10433000A02A0020C02A00207C29002080B586B059
:1043400000AF874B1B68DB687B61864A53786FF34D
:10435000C3035370844A937B012161F383039373F6
:104360007F4B04221A717B691B78184600F00CF908
:1043700003461A467D4B1A707C4B1B78122B00F2B9
:10438000EC807A4B1B78DB00794A13443B613B6934
:104390009B78C3F38103D9B2734A937B61F38303A0
:1043A00093733B69DB78C3F30403DBB21A46714BAA
:1043B0001B78C3F30403DBB21340002B00F0CD8065
:1043C000694B9B883A6912799342C0F0C6800023FA
:1043D000FB717B6901337B613B699B78C3F30013FD
:1043E000DBB2FB73FB7BDB01FB737B691A78FB7B26
:1043F0001340DBB2002B14BF01230023D9B25A4A69
:10440000937B61F3041393737B691A78FB7BDB4323
:10441000DBB21340DAB27B691A703B695B7803F058
:104420000F03DBB2002B0AD0FB1D1A4639697869ED
:1044300000F0EAF803461A464F4B1A7003E03B6956
:104440005A794D4B1A704C4B1B781C2B00F285800F
:10445000494B1B781B01494A1344BB60BB689B78DE
:10446000C3F38103D9B2404A937B61F3830393730F
:10447000BB689B78C3F30103DBB21A463A4B9B7BC4
:10448000C3F30103DBB21340002B66D0BB681B886B
:10449000002B05D0BB681A88334B9B889A4255D1B4
:1044A000374BDB68364A83F02003D360BB680433A4
:1044B000184600F009FA03461A46324B1A70314B7F
:1044C0001B78002B31D1274A537843F008035370EF
:1044D0002C4B1B78002B3FD13B695B78C3F3030364
:1044E000DBB21A467B6913441F4A13603B695B7851
:1044F000C3F30313DBB21A467B6913441A4A936071
:10450000194B9B883A695278C2F30302D2B2013246
:10451000D2B29B1A9AB2144B9A80134B00229A8102
:10452000BB68DB681048984717E0164B1B787E2B5A
:1045300009D13B699B7803F04003DBB2002B02D129
:10454000104B31221A7000F0EBF905E00D4B1322ED
:104550001A7000F0E5F900E000BF1837BD4680BDD5
:10456000982A0020942A0020A02A0020B42A0020A3
:1045700028160020C42A0020B82A0020D8160020BF
:1045800000080140BC2A002080B485B000AF03467B
:10459000FB711323FB730023BB73FB7903F0400310
:1045A000002B0ED1FB79852B0BD897F90730002B08
:1045B00001DA4023BB73FA79BB7BD31A044AD35C7C
:1045C000FB73FB7B18461437BD4680BC704700BFA9
:1045D000E015002080B500AF00F002F800BF80BDFC
:1045E00080B400AF074A1378012161F3040313700C
:1045F000044A1378012161F34613137000BFBD46CE
:1046000080BC7047C42A002080B586B000AFF86037
:10461000B9607A60B86800F06BF80346FB741D233C
:10462000BB757B6800221A7000237B75BB689B7981
:10463000FB7545E000233B753B7DFA6813441A780F
:10464000F97D3B7D0B442949CB5C9A4201D1012382
:1046500000E00023BB743B7D01333B75BB685B7896
:10466000C3F30303DBB21A463B7D934202D2BB7C09
:10467000002BE1D1BB7C002B05D0BB685A797B7D38
:104680001344BB7524E03B7D013B3B757B681B7885
:104690003A7D9A4202D97B683A7D1A703B7DFA686E
:1046A00013441A78F97D3B7D0B441049CB5C9A4248
:1046B0000DD37B7D01337B75FA7DFB7C1344FB7549
:1046C000BB6808339B79FA7D9A42B3D300E000BF00
:1046D0007B681B781A4602239340DAB27B681A7013
:1046E000BB7D18461837BD4680BD00BFC0160020F0
:1046F00080B483B000AF78607B689B7803F02003C0
:10470000DBB2002B05D07B685B78C3F30303DBB21D
:104710000CE07B685B78C3F30303DBB21A467B686B
:104720005B78C3F30313DBB21344DBB218460C37D8
:10473000BD4680BC704780B582B000AF7860012173
:10474000786800F075F800BF0837BD4680BD80B4BA
:1047500083B000AF786000BF0C37BD4680BC7047A7
:1047600080B483B000AF786000BF0C37BD4680BC1A
:10477000704780B483B000AF786000BF0C37BD468F
:1047800080BC704780B483B000AF786000BF0C3746
:10479000BD4680BC704780B483B000AF786000BF76
:1047A0000C37BD4680BC704780B483B000AF7860E2
:1047B00000BF0C37BD4680BC704780B483B000AFEB
:1047C000786000BF0C37BD4680BC704780B483B0B2
:1047D00000AF786000BF0C37BD4680BC704780B426
:1047E00083B000AF786000BF0C37BD4680BC704717
:1047F00080B483B000AF78607B689A887B689A81C8
:1048000000BF0C37BD4680BC704780B483B000AF9A
:10481000786000BF0C37BD4680BC704780B483B061
:1048200000AF786000BF0C37BD4680BC7047000009
:1048300080B582B000AF786039603B68022B11D13F
:104840000E4B1B7803F00703DBB2032B06D00B4B98
:104850001B7803F03803DBB2182B03D0222000F0C2
:1048600011F808E0064B1B78C3F30403DBB21946CA
:104870003868FFF7F7FC0837BD4680BDC82A00201E
:10488000C42A002080B483B000AF0346FB71064BFE
:104890001B78002B02D1044AFB79137000BF0C3740
:1048A000BD4680BC704700BFBC2A002080B483B0E6
:1048B00000AF0023FB71FB790133FB7100BF0C37A4
:1048C000BD4680BC7047000080B483B000AF786004
:1048D0007B681B78C3F30403DBB21A460F4B1B78CB
:1048E000C3F30403DBB21340002B01D17E2310E09D
:1048F0007B681B78C3F34113DBB21A46074B1B7866
:10490000C3F34113DBB21340002B01D1332300E08A
:10491000002318460C37BD4680BC7047C42A0020CF
:1049200080B400AF064B1B68DB681B78272B02D1D5
:10493000044B00221A7000BFBD4680BC704700BF08
:10494000982A0020BD2A002080B58AB000AF234BF2
:104950007B626FF07F433B62214BFB61214A07F191
:10496000140392E803001860043319801E4A07F10B
:104970000C0392E8030083E803001B4A3B1D92E806
:10498000030083E803003A1D07F10C0311461846A3
:1049900001F06CFF07F11403062219464FF4106072
:1049A00001F06EFE07F11C03042219464FF48070DB
:1049B00001F066FE07F12003042219464FF4A060BF
:1049C00001F05EFE07F12403042219464FF47060E3
:1049D00001F056FE00BF2837BD4680BDC0A8A543E4
:1049E000C0A8A5FEDCB10008E4B1000880B582B023
:1049F00000AF786039601F4B1B78012B36D100F077
:104A00007BFD03461A467B68DA707B68DB78DAB296
:104A10007B685B79DBB29A4207D07B68DB78DAB2DD
:104A20007B685A717B6801221A707B68DB78DBB285
:104A30001A464021104803F045FB00F06FFD034685
:104A40001A463B68DA703B68DB78DAB23B685B7920
:104A5000DBB29A4207D03B68DB78DAB23B685A7126
:104A60003B6801221A70034B00221A7000BF0837FE
:104A7000BD4680BDCD2A00200008014080B483B02F
:104A800000AF0346FB7197F90730002B0BDBFB7976
:104A900003F01F02064997F907305B09012000FA6D
:104AA00002F241F8232000BF0C37BD4680BC70479E
:104AB00000E100E080B500AF134BDB69124A43F020
:104AC0000103D3614FF0804300221A604FF080430E
:104AD00047229A624FF0804340F2E732DA624FF0A9
:104AE0008043DB684FF0804243F00103D3604FF016
:104AF00080431B684FF0804243F0010313601C2089
:104B0000FFF7BCFF00BF80BD0010024080B500AFC2
:104B1000104BDB690F4A43F00203D3610E4B0022B6
:104B20001A600D4B47229A620B4B40F2E732DA6271
:104B3000094BDB68084A43F00103D360064B1B684E
:104B4000054A43F0010313601D20FFF797FF00BFE4
:104B500080BD00BF001002400004004080B500AFDF
:104B6000144B1B6903F00103002B21D0124B1B785F
:104B70000133DAB2104B1A700F4B1B78002B04D0A4
:104B800006F0C4F80C4B00221A700C4B1B78013352
:104B9000DAB20A4B1A70094B1B78092B02D9074B62
:104BA00000221A70034B1B69024A23F001031361B0
:104BB00000BF80BD00040040242B0020252B0020D6
:104BC00080B400AF024B1B681846BD4680BC7047DE
:104BD000102B002080B582B000AF4FF080431B69DE
:104BE00003F00103002B00F08480444B1B68013369
:104BF000424A136006F028FA414B1B78DBB20133BE
:104C0000DBB23F4A19461170092B04D9FFF75EFB4E
:104C10003B4B00221A703B4B1B780133DAB2394B05
:104C20001A70384B1B78632B15D9364B00221A703B
:104C3000354B01221A70354B1B780133DAB2334BF6
:104C40001A70324B1B78092B05D9304B00221A7091
:104C50002F4B01221A70294B1B686FF000429342C0
:104C60003FD3264B00221A6000237B6027E0294AAD
:104C70007B681B01134400221A60264A7B681B01D3
:104C800013440C331B68002B0FDA224A7B681B018C
:104C900013440C331B6803F1004301331D497A6848
:104CA00012010A440C32136006E01A4A7B681B01A9
:104CB00013440C3300221A607B6801337B607B68ED
:104CC000032BD4DD144B1B68002B07DA124B1B6837
:104CD00003F100430133104A136002E00E4B00223F
:104CE0001A604FF080431B694FF0804223F00103AC
:104CF000136100BF0837BD4680BD00BF102B0020E8
:104D0000262B0020272B0020142B0020282B0020EE
:104D1000152B0020D02A0020502B002080B483B017
:104D200000AF00237B6020E0144A7B681B01134422
:104D3000043300221A70114A7B681B0113440833A4
:104D400000221A600D4A7B681B01134400221A607E
:104D50000A4A7B681B0113440C3300221A60084B7B
:104D600000221A607B6801337B607B68032BDBDDEC
:104D700000BF00BF0C37BD4680BC7047D02A002062
:104D8000102B002080B483B000AF0346FB71FB7989
:104D90000F4A1B011344043300221A70FB790C4A9A
:104DA0001B011344083300221A60FB79084A1B01D7
:104DB000134400221A60FB79054A1B0113440C338B
:104DC00000221A6000BF0C37BD4680BC704700BF90
:104DD000D02A002080B483B000AF03463960FB7155
:104DE000FB79154A1B011344043301221A70FB7925
:104DF000114A1B01134408333A681A60FB790F4AC1
:104E000012680D491B010B441A60FB790A4A1B0109
:104E100013441968FB79084A1B01134408331A68C4
:104E2000FB790A4404491B010B440C331A6000BF90
:104E30000C37BD4680BC7047D02A0020102B0020C4
:104E400080B582B000AF0346FB71FB79164A126849
:104E500016491B010B441A60FB79144A1B011344C9
:104E600004331B78012B19D1FB79104A1B01134421
:104E70001A68FB790D491B010B440C331B689A42DD
:104E80000CD3FB79094A1B01134408331A68FB79D8
:104E900011461846FFF79EFF012300E00023184645
:104EA0000837BD4680BD00BF102B0020D02A00204F
:104EB00080B582B000AF03463960FB71FB79124ABE
:104EC00052F82330002B09D1FFF77AFE0146FB7917
:104ED0003A680A440C4941F823200FE0FFF770FEBE
:104EE0000246FB79084951F823309A4206D3FB79F0
:104EF000054A002142F82310012300E00023184650
:104F00000837BD4680BD00BF182B002080B483B099
:104F100000AF0346FB71FB791B09DBB21A46920016
:104F200013445B00DAB2FB7903F00F03DBB21344E6
:104F3000DBB218460C37BD4680BC704780B483B0E6
:104F400000AF0346FB71FA790C4BA3FB0213D9089F
:104F50000B469B000B445B00D31ADAB2FB7907497E
:104F6000A1FB0313DB08DBB21B01DBB21344DBB292
:104F700018460C37BD4680BC704700BFCDCCCCCCAA
:104F800080B485B000AF78600B46FB700023FB60F7
:104F900007E0FB687A68134400221A70FB6801334B
:104FA000FB60FB78FA689A42F3DB00BF00BF14375E
:104FB000BD4680BC7047000080B586B004AF0023BA
:104FC000FB711E20FFF7BAFF03463B703B20FFF743
:104FD000B5FF03467B700820FFF7B0FF0346BB70A8
:104FE0000420FFF7ABFF0346FB701A20FFF7A6FF74
:104FF00003463B710220FFF7A1FF03467B71192096
:10500000FFF79CFF0346BB714FF47A7302930723AB
:1050100001933B46009301230022D021174803F05F
:10502000ADF9174B00221A740023FB711EE0FB79C7
:10503000144A9B00134401229A70FB79114A9B0089
:1050400013440022DA70FB790E4A9B0013440022BD
:105050005A70FB790B4A002102F82310FB790A4AA7
:10506000002142F82310FB790133FB71FB79032BFC
:10507000DDD900BF00BF0837BD4680BDB82B00207A
:105080002C2B0020402B0020502B002080B588B016
:1050900004AF6C4B1B7CDBB2012B49D1694B1B78F5
:1050A000DBB21846FFF74AFF03463B71654B5B785E
:1050B000DBB21846FFF742FF03467B71614B9B78DA
:1050C000DBB21846FFF73AFF0346BB715D4BDB7856
:1050D000DBB21846FFF732FF0346FB71594B1B79D1
:1050E000DBB21846FFF72AFF03463B72554B5B794C
:1050F000DBB21846FFF722FF03467B72514BDB8879
:105100009BB2DBB21846FFF719FF0346BB724FF4A0
:105110007A730293072301933B1D0093012300221E
:10512000D021494803F02AF9464B00221A744CE07A
:105130004FF47A730293072301933B1D00930123DD
:105140000022D021404803F013FA3B7903F07F039B
:10515000DBB21846FFF7DAFE03461A46394B1A70DF
:105160007B791846FFF7D2FE03461A46354B5A7034
:10517000BB7903F03F03DBB21846FFF7C7FE0346D7
:105180001A46304B9A70FB791846FFF7BFFE03466C
:105190001A462C4BDA703B7A1846FFF7B7FE0346E7
:1051A0001A46284B1A717B7A1846FFF7AFFE034662
:1051B0001A46244B5A71BB7A1846FFF7A7FE0346DE
:1051C00003F5FA639AB21F4BDA801E4BDB889BB261
:1051D0001B021AB21B4B5B79DBB21BB213431BB22F
:1051E000FB811A4B1B68C833FA891A80154B1B794F
:1051F000DBB21B029BB2134AD278D2B21343FB81BB
:10520000124B1B68CA33FA891A800E4B9B78DBB2AB
:105210001B029BB20B4A5278D2B21343FB810B4B59
:105220001B68CC33FA891A80064B1B78DBB21B0251
:10523000FB81064B1B68CE33FA891A8000BF1037FA
:10524000BD4680BD2C2B0020B82B0020E01800208C
:1052500080B582B000AFFFF7B3FC38600023FB716C
:105260000023FB7111E0FB792F4A52F823202F4BCA
:1052700013443A689A4205D3FB792D4A9B001344A4
:1052800001229A70FB790133FB71FB79032BEAD978
:10529000284B9B78DBB2082B0ED9264B9B78DBB2D0
:1052A0000A2B09D8224B01225A70214B00225A7135
:1052B0001F4B00225A7230E01E4B9B78DBB20A2B48
:1052C0000ED91C4B9B78DBB20C2B09D8184B002253
:1052D0005A70174B01225A71154B00225A721CE06A
:1052E000144B9B78DBB20C2B0ED9124B9B78DBB2A4
:1052F0000E2B09D80E4B00225A700D4B00225A710A
:105300000B4B01225A7208E0094B00225A70084BDD
:1053100000225A71064B00225A7200F00DF800BFAD
:105320000837BD4680BD00BF502B002080CBA400B5
:10533000402B00202C2B002080B582B000AF002332
:10534000FB71374B9B78DBB2022B08D9344B9B782F
:10535000DBB2062B03D8334B01225A731EE0304BCD
:105360009B78DBB2122B08D92D4B9B78DBB2142B28
:1053700003D82C4B01225A7310E0294B9B78DBB2E7
:105380000A2B08D9264B9B78DBB20C2B03D8254B74
:1053900001225A7302E0234B00225A730023FB714F
:1053A00036E0FB791F4A9B0013449B78DBB2002B4D
:1053B00006D0FB791B4A9B0013445B78DAB204E009
:1053C000FB79184A12F82330DAB2FB7915499B00B1
:1053D0000B44DA70FB79144A1168FA790A441149CE
:1053E0009B000B44DB78DBB21370FB7903330122A3
:1053F00002FA03F399B2FB790A4A9B001344DB7863
:10540000DBB21A46094802F05DFEFB790133FB71FD
:10541000FB79032BC5D900BF00BF0837BD4680BD4F
:105420002C2B0020402B0020E81800200008014011
:1054300090B482B000AF0446084611461A4623468F
:10544000FB710346BB710B467B7113463B71154BD9
:105450009B78DBB23A7C9A4205D1124B5B78DBB287
:105460003A7D9A4218D00F4B01221A74FB799AB2F6
:105470000C4BDA800B4ABB7953710A4A7B79137162
:10548000084A3B79D370074A3B7C9370054A3B7DC1
:105490005370044A3B7E137000BF0837BD4690BC72
:1054A000704700BF2C2B002090B583B000AF03469F
:1054B0000A46FB711346BB71FB790D4A9B001344EE
:1054C00000229A70BB79002B14BF01230023DAB2AB
:1054D000FB791146064A02F82310FC79FFF770FBAE
:1054E0000346044A42F8243000BF0C37BD4690BD45
:1054F000402B0020502B002080B483B000AF064B1F
:105500001B78C3F30003DBB2FB71FB7918460C3741
:10551000BD4680BC704700BFCC2A002080B483B059
:1055200000AF064B1B78C3F34003DBB2FB71FB7982
:1055300018460C37BD4680BC704700BFCC2A0020FF
:1055400080B400AF034B00221A7000BFBD4680BC80
:10555000704700BFCC2A002080B500AF01F038FAB8
:1055600000F0B0F800F0FEF94D4B1B684C4A23F0F8
:10557000020313604A4B1B68494A43F4004313601B
:1055800000BF474B1B6803F40043002BF9D1454B88
:105590001B69444A43F001031361424B1B69414AB2
:1055A00023F0010313613F4BDB693E4A43F00103E3
:1055B000D36100F023F9FEF781FE00F055F9394B75
:1055C000DB69384A23F48023D361364B9B69354A23
:1055D00043F480239361344BDB68334A43F4005334
:1055E000D36005F045FA00F0CBF8FFF763FAFFF758
:1055F0008DFA00F067F900F07FF9FDF7EFFD022169
:105600002A4802F04FF9FDF7A3FD05F072F8FFF705
:10561000D3FCFFF783FB02210020FFF7DBFB0A210D
:105620000120FFF7D7FB4FF47A710220FFF7D2FB7E
:10563000FFF786FF01224FF480511D4802F042FD22
:10564000012001F027FAFFF77FF9FFF7B5FC0020F2
:10565000FFF7F6FB0346002BF9D0164803F0F3FDE5
:10566000154B1B78DBB2012B02D100F01BFAEEE7E1
:105670000220FFF7E5FB0346002B0ED00F4BDB6843
:105680000E4A83F40053D360FFF700FDFFF7E0FDFF
:105690000B4B1B78184605F0EDFB00F0EFF9D6E751
:1056A000006400400010024000480040902B0020A1
:1056B000000C01400C2C0020162B00200010014093
:1056C000702C002080B594B000AF07F12803282289
:1056D0000021184605F036FD07F1140300221A6078
:1056E0005A609A60DA601A613B1D00221A605A60A3
:1056F0009A60DA600923BB624FF48033FB620023B7
:105700003B630123BB6301233B6402237B644FF4AF
:105710008033BB644FF4E013FB6407F128031846A1
:1057200003F0A0FD0346002B01D000F0A1F90F23E8
:105730007B610223BB610023FB614FF480633B620A
:1057400000237B6207F114030221184604F00CF8D1
:105750000346002B01D000F08BF902237B604FF44D
:105760000043FB603B1D184604F078F90346002B0C
:1057700001D000F07DF900BF5037BD4680BD00006C
:1057800080B584B000AF3B1D00221A605A609A6059
:10579000184B194A1A60174B00229A60154B0022C9
:1057A0001A73144B00221A75124B4FF46022DA61FF
:1057B000104B00225A600F4B01221A610D4801F074
:1057C0008DF90346002B01D000F052F901237B60D4
:1057D0000123BB600023FB603B1D1946054801F017
:1057E00027FB0346002B01D000F042F900BF103721
:1057F000BD4680BD602B00200024014080B500AF75
:10580000174B184A1A60164B04225A60144B002298
:105810009A60134B0022DA60114B4FF460221A6138
:105820000F4B4FF480125A610D4B00221A760C4B2D
:1058300001225A760A4B01229A76094B0022DA7627
:10584000074B00221A77064B00225A77044801F0D2
:1058500031FC0346002B01D000F00AF900BF80BDE7
:10586000902B00200064004080B500AF124B134A1B
:105870001A60114B124A5A600F4B00229A600E4B6D
:105880000022DA600C4B4FF480421A610A4B00226E
:105890005A61094B00229A61074B0022DA61064BDC
:1058A00000221A62044802F025FC0346002B01D0B6
:1058B00000F0DEF800BF80BDB82B0020005400408F
:1058C000A086010080B500AF094B0A4A1A60084B58
:1058D00004225A60064B40F271229A60044803F099
:1058E0006EFC0346002B01D000F0C2F800BF80BD63
:1058F0000C2C00200030004080B500AF174B184A38
:105900001A60164B4FF482725A60144B00229A6050
:10591000124B0022DA60114B00221A610F4B002259
:105920005A610E4B4FF400729A610C4B0022DA61FF
:105930000A4B00221A62094B00225A62074B0022CE
:105940009A62064B0A22DA62044804F03DF90346E3
:10595000002B01D000F08CF800BF80BD182C002077
:105960000038004080B588B000AF07F11003002276
:105970001A605A609A60DA60394B9B69384A43F082
:1059800010039361364B9B6903F01003FB60FB68C7
:10599000334B9B69324A43F020039361304B9B6940
:1059A00003F02003BB60BB682D4B9B692C4A43F07E
:1059B000040393612A4B9B6903F004037B607B68BB
:1059C000274B9B69264A43F008039361244B9B694C
:1059D00003F008033B603B6800224FF4005121486C
:1059E00002F070FB00224FF47E711F4802F06AFB48
:1059F000002241F201011D4802F064FB4FF4005304
:105A00003B6101237B610023BB610223FB6107F142
:105A100010031946134802F0D1F94FF47E733B612D
:105A200001237B610023BB610223FB6107F11003AB
:105A300019460D4802F0C2F941F201033B6101230E
:105A40007B610023BB610223FB6107F11003194650
:105A5000064802F0B3F900BF2037BD4680BD00BF45
:105A6000001002400010014000080140000C0140FD
:105A700080B400AF00BFBD4680BC704780B500AFAA
:105A800006490748FEF7B2FF0320FFF7D9F903469E
:105A9000002B01D000F030FB00BF80BD7C2C00202B
:105AA000742C002080B586B000AF0023FB82002359
:105AB000FB730023BB8200237B8200233B82AF4B1E
:105AC0001B78DBB2013B032B00F2F58201A252F8F6
:105AD00023F000BFE55A0008315C0008B95E0008F9
:105AE0007F6000080120FDF771FC4FF4FA7000F0B0
:105AF000D1FFA34B00221A700DE00220FDF7C8FD74
:105B0000A04B02221A70C82000F0C4FF9B4B1B78E8
:105B1000DBB2042B05D09A4B1B78DBB2002BECD008
:105B200000E000BF984B00221A700320FEF7F4F843
:105B30000120FDF74BFC4FF4FA7000F0ABFF03209F
:105B4000FEF7EAF80320FDF741FC4FF4FA7000F08D
:105B5000A1FF8B4B00221A7010E00320FEF7DCF847
:105B60000420FDF795FD874B04221A70642000F095
:105B700091FF824B1B78DBB2042B05D0804B1B7846
:105B8000DBB2002BE9D000E000BF7F4B01221A708E
:105B90000320FEF7C1F80520FDF718FC642000F093
:105BA00079FF0320FEF7B8F80620FDF70FFC4FF44D
:105BB000FA7000F06FFF724B00221A700320FEF79C
:105BC000ABF80720FDF764FD6E4B07221A706420C6
:105BD00000F060FF6C4B00221A70694B00221A70B3
:105BE0000320FEF799F80820FDF752FD654B0822C7
:105BF0001A70642000F04EFF634B01221A70604B54
:105C000000221A700320FEF787F80920FDF740FDF7
:105C10005C4B09221A70642000F03CFF574B1B7844
:105C2000DBB2042B00F05282544B02221A7052E273
:105C30000120FFF705F90346FB73FB7B012B40F0C6
:105C40004782524B1B681B78022B00F09080022B7E
:105C500000F33E82002B02D0012B71D038E20320EA
:105C6000FEF75AF81020FDF713FD642000F012FF34
:105C7000474BDB7A3B71464B1B7B7B71444B5B7B19
:105C8000BB71142000F006FF1120FDF701FD142068
:105C900000F000FF3E4BDB79FB713D4B1B7A3B7202
:105CA0003B4B5B7A7B723A4B9B7ABB72384BDB7A0D
:105CB000FB72374B1B7B3B73354B5B7B7B730A2043
:105CC00000F0E8FE3B794D2B1ED17B79432B1BD195
:105CD000BB794E2B18D1FB79452B15D13B7A582B2C
:105CE00012D17B7A572B0FD1BB7A522B0CD1FB7A76
:105CF000492B09D13B7B542B06D17B7B452B03D110
:105D0000244B00221A7002E0224B00221A70142049
:105D100000F0C0FE0320FDF7FFFF1E4B1B78012B98
:105D200004D11A4B1B6801221A70C3E0194B1B786F
:105D3000002B40F0BF80154B1B6801221A70B9E0A0
:105D4000142000F0A7FE0320FDF7E6FF1220FDF768
:105D50009FFC1E2000F09EFE0320FDF7DDFF1320B8
:105D6000FDF796FC094B1B6802221A70A3E0064B54
:105D700000221A70024B00221A7021E0862C0020AB
:105D80005919002058190020852C0020F0180020F7
:105D90008C2C00209C2C00200320FDF7BDFF0A2046
:105DA000FDF776FCA74B0A221A70642000F072FE01
:105DB000642000F06FFEA44B1B78DBB2042B05D0EF
:105DC000A24B1B78DBB2002BE6D000E000BFA04B5B
:105DD00001221A704FF4FA6000F05CFE9C4B002226
:105DE0001A700320FDF798FF1620FDF7EFFA6420E4
:105DF00000F050FE954B00221A7010E00320FDF7D2
:105E00008BFF0B20FDF744FC8E4B0B221A70642095
:105E100000F040FE8C4B1B78DBB2042B05D08B4B83
:105E20001B78DBB2002BE9D000E000BF884B0122D9
:105E30001A70012000F02EFE844B00221A7010E030
:105E40000320FDF769FF0C20FDF722FC7D4B0C229F
:105E50001A70642000F01EFE7B4B1B78DBB2042B13
:105E600005D07A4B1B78DBB2002BE9D000E000BFF5
:105E7000012000F00FFE764B00221A70022000F085
:105E800009FE0023FB82704B03221A70714B002223
:105E90001A60714B40F24B121A80704B00221A713B
:105EA0006F4B1B6800221A70642202216D4804F0B7
:105EB00059FE00E000BF0BE1684B1B79DBB2012B00
:105EC00040F008815F4B0C221A700023FB82634B69
:105ED0001868604B1B68DBB2F98A0422FDF75CFF8F
:105EE00007E0322000F0D6FD574B1B78DBB2042BC5
:105EF00005D0564B1B78DBB2002BF2D000E000BF80
:105F00000A2000F0C7FD1620FDF760FA0423FB828B
:105F10006EE0BB8A0133BB82BA8A534BA3FB0213E8
:105F200019090B469B000B449B00D31A9BB2002B14
:105F300002D11620FDF74AFAFB8AF52B33D910E07F
:105F4000464B1868434B1B68DBB2F98A0422FDF705
:105F500023FF322000F09EFD3B4B1B78DBB2042B6D
:105F600005D03A4B1B78DBB2002BE9D000E000BF34
:105F70007B8AFD337B827B8AFF2B33D97B8AA3F517
:105F800080737B823B8A01333B823B8A03F00F03A1
:105F90009BB2012B26D13B8A03F00F033B823220B8
:105FA00000F078FD1EE02D4B18682A4B1B68DBB211
:105FB000F98A0822FDF7F0FEBB8A082B12D107E010
:105FC0000A2000F067FD204B1B78DBB2042B05D0C4
:105FD0001E4B1B78DBB2002BF2D000E000BF032089
:105FE00000F058FD032000F055FDFB8A0733FB82CB
:105FF000FB8AFF2B8DD964210120FEF759FF034650
:10600000FB73FB7B012B0AD1114B1B78002B03D1B7
:106010000F4B01221A7002E00D4B00221A70002370
:10602000BB820C4B1B6801330A4A13600A4B1B8866
:106030001A46084B1B689A4218D8034B04221A7060
:1060400049E000BF58190020862C00205919002073
:10605000852C0020882C00209E2C0020503200200F
:10606000F018002068320020CDCCCCCC1C4B002294
:106070001A71642202211B4804F074FD2AE00D20ED
:10608000FDF706FB4FF4967000F004FD0E20FDF7BF
:106090009DF9C82000F0FEFC0F20FDF7F9FAC8209A
:1060A00000F0F8FC104B99221A70642202210D486E
:1060B00004F058FD0FE00C4B00221A700B4B00222D
:1060C0001A700B4B1B6800221A7004E000BF02E03C
:1060D00000BF00E000BF00BF1837BD4680BD00BF55
:1060E0005032002068320020862C0020162B002021
:1060F000F01800200000000080B582B000AF03203F
:10610000FEF740FE01F072FD0CA3D3E9002308491D
:10611000022001F0FBFC01F08FFD064B7B607B68E9
:10612000054A1A6000BF0837BD4680BDAFF3008046
:10613000D0FF00080CED00E00400FA05AABBCCDD9E
:106140000000000080B485B000AF154B9B69144A75
:1061500043F001039361124B9B6903F00103BB60A1
:10616000BB680F4BDB690E4A43F08053D3610C4B85
:10617000DB6903F080537B607B680A4B5B68FB60E4
:10618000FB6823F0E063FB60FB6843F00073FB6097
:10619000044AFB68536000BF1437BD4680BC70479B
:1061A000001002400000014080B588B000AF786068
:1061B00007F1100300221A605A609A60DA607B6867
:1061C0001B68184A934229D1174B9B69164A43F41E
:1061D00000739361144B9B6903F40073FB60FB68CD
:1061E000114B9B69104A43F0040393610E4B9B696A
:1061F00003F00403BB60BB6806233B6103237B61A0
:1062000007F110031946094801F0D8FD00220021CA
:10621000122001F044FC122001F05DFC00BF203789
:10622000BD4680BD0024014000100240000801402E
:1062300080B58AB000AF786007F1140300221A60BD
:106240005A609A60DA607B681B68294A93424BD196
:10625000284BDB69274A43F00073D361254BDB6988
:1062600003F000733B613B69224B9B69214A43F079
:10627000080393611F4B9B6903F00803FB60FB68F5
:106280004FF480737B610023BB610123FB6107F145
:1062900014031946184801F091FD4FF400737B6117
:1062A0000223BB6103233B6207F114031946124822
:1062B00001F084FD114B5B687B627B6A23F4C04371
:1062C0007B627B6A43F0E0637B627B6A43F48043DA
:1062D0007B620A4A7B6A536000220021142001F08D
:1062E000DEFB142001F0F7FB00BF2837BD4680BD60
:1062F0000064004000100240000C0140000001401A
:1063000080B588B000AF786007F1100300221A60F2
:106310005A609A60DA607B681B68154A934223D101
:10632000144B9B69134A43F008039361114B9B691B
:1063300003F00803FB60FB68C0233B6112237B6111
:106340000323FB6107F1100319460B4801F036FDEA
:10635000084BDB69074A43F40013D361054BDB6943
:1063600003F40013BB60BB6800BF2037BD4680BD8F
:106370000054004000100240000C014080B588B07D
:1063800000AF786007F1100300221A605A609A602B
:10639000DA607B681B681C4A934231D11B4BDB6976
:1063A0001A4A43F48043D361184BDB6903F48043FA
:1063B000FB60FB68154B9B69144A43F0080393612B
:1063C000124B9B6903F00803BB60BB684FF420438A
:1063D0003B6102237B610323FB6107F11003194634
:1063E0000B4801F0EBFC4FF480433B6100237B61E1
:1063F0000023BB6107F110031946054801F0DEFCDC
:1064000000BF2037BD4680BD00380040001002406C
:10641000000C014080B400AF00BFFDE780B400AFC6
:1064200000BFFDE780B400AF00BFFDE780B400AF60
:1064300000BFFDE780B400AF00BFFDE780B400AF50
:1064400000BFBD4680BC704780B400AF00BFBD46F2
:1064500080BC704780B400AF00BFBD4680BC7047B1
:1064600080B500AF00F0FAFA00BF80BD80B500AF84
:10647000024800F00BFC00BF80BD00BF602B002075
:1064800080B400AF00BFBD4680BC704780B584B00B
:1064900000AF7860224BDB689847214B5B699847D7
:1064A0001F4B5B6A002B03D01D4B9B6A002B14D142
:1064B0001B4B1B6A7A68120CD2B210469847184BD5
:1064C0001B6A7A68120AD2B210469847144B1B6AAC
:1064D0007A68D2B21046984711E07B681B0CDBB299
:1064E0003B737B681B0ADBB27B737B68DBB2BB73DD
:1064F0000B4B9B6A07F10C02032110469847084B8F
:10650000DB6998470346FB73054B9B699847044B2F
:106510001B699847FB7B18461037BD4680BD00BFFE
:10652000AC18002080B584B000AF78600B46FB70DB
:10653000224BDB689847214B5B6998477B6843F0A7
:1065400004037B601D4B9B6A002B19D11B4B1B6AFC
:106550007A68120CD2B210469847184B1B6A7A68B8
:10656000120AD2B210469847144B1B6A7A68D2B20C
:1065700010469847114B1B6AFA781046984713E06B
:106580007B681B0CDBB23B737B681B0ADBB27B7343
:106590007B68DBB2BB73FB78FB73084B9B6A07F12C
:1065A0000C02042110469847044B9B699847034B03
:1065B0001B69984700BF1037BD4680BDAC1800204E
:1065C00090B587B000AFF860B9601346FB802B4BE5
:1065D000DB689847294B5B699847284B5B6A002B1F
:1065E00003D0264B9B6A002B26D1244B1B6AFA68EA
:1065F000120CD2B210469847204B1B6AFA68120A56
:10660000D2B2104698471D4B1B6AFA68D2B21046A8
:1066100098470023FB820AE0184BDB69FA8AB968C5
:106620008C18984703462370FB8A0133FB82FA8A51
:10663000FB889A42F0D317E0FB681B0CDBB23B747B
:10664000FB681B0ADBB27B74FB68DBB2BB740B4BD1
:106650009B6A07F11002032110469847074B5B6ABB
:10666000FA881146B8689847044B9B699847034BD2
:106670001B69984700BF1C37BD4690BDAC18002071
:1066800080B586B000AFF860B9601346FB802B4B35
:10669000DB689847294B5B699847FB6843F0040324
:1066A000FB60264B9B6A002B26D1244B1B6AFA68A1
:1066B000120CD2B210469847204B1B6AFA68120A95
:1066C000D2B2104698471D4B1B6AFA68D2B21046E8
:1066D00098470023FB820AE0184B1B6AFA8AB968C4
:1066E0000A44127810469847FB8A0133FB82FA8AE3
:1066F000FB889A42F0D317E0FB681B0CDBB23B74BB
:10670000FB681B0ADBB27B74FB68DBB2BB740B4B10
:106710009B6A07F11002032110469847074B9B6ABA
:10672000FA881146B8689847044B9B699847034B11
:106730001B69984700BF1837BD4680BDAC180020C4
:1067400080B400AF00BFBD4680BC704780B400AFCE
:1067500000BFBD4680BC704780B500AF00224FF43B
:106760008071024801F0AEFC00BF80BD000801400E
:1067700080B500AF01224FF48071024801F0A2FC05
:1067800000BF80BD0008014080B582B000AF00238B
:10679000FB71F91D64230122034803F0DDFBFB7943
:1067A00018460837BD4680BD182C002080B584B03F
:1067B00000AF0346FB71FB79FB7307F10F01642304
:1067C0000122034803F084FA00BF1037BD4680BDA4
:1067D000182C002080B586B000AF3B1D062219465C
:1067E0004FF41060FFF7ECFE07F114030422194682
:1067F0004FF48070FFF7E4FE07F1100304221946FE
:106800004FF4A060FFF7DCFE07F10C0304221946E9
:106810004FF47060FFF7D4FE80210020FFF782FE66
:106820000020FFF733FE3B1D062219464FF410608F
:10683000FFF726FF07F11403042219464FF4807076
:10684000FFF71EFF07F11003042219464FF4A06062
:10685000FFF716FF07F10C03042219464FF470608E
:10686000FFF70EFF00BF1837BD4680BD80B584B06E
:1068700000AF786039600023BB73FFF7ABFF7B6824
:10688000002B3BD00023BB730023FB7315E097F96B
:106890000F307A6813441A78BB7B1344DBB2BB73A6
:1068A00097F90E30102B02DD4FF0FF3366E097F9B9
:1068B0000F30DBB20133DBB2FB7397F90F30072BDC
:1068C000E5DD0023FB7315E097F90F309B000133E2
:1068D000DB0003F5F853184697F90F307A68134434
:1068E0001B781946FFF71EFE97F90F30DBB2013314
:1068F000DBB2FB7397F90F30072BE5DD3B68002B0C
:106900003BD00023BB730023FB7315E097F90F30D6
:106910003A6813441A78BB7B1344DBB2BB7397F914
:106920000E30102B02DD4FF0FF3327E097F90F30C8
:10693000DBB20133DBB2FB7397F90F30072BE5DDD8
:106940000023FB7315E097F90F309B000133DB0048
:1069500003F5F053184697F90F303A6813441B7843
:106960001946FFF7DFFD97F90F30DBB20133DBB2D9
:10697000FB7397F90F30072BE5DD0023184610371E
:10698000BD4680BDFFF77CFD0B480C490C4A002337
:1069900002E0D458C4500433C4188C42F9D3094AD5
:1069A000094C002301E013600432A242FBD304F03F
:1069B000D1FBFEF7D1FD704700100020F818002031
:1069C00060B20008F81800206C320020FEE70000DA
:1069D00080B500AF084B1B68074A43F010031360F3
:1069E000032001F051F80F2000F008F8FFF7AAFB90
:1069F0000023184680BD00BF0020024080B582B051
:106A000000AF7860124B1A68124B1B7819464FF48E
:106A10007A73B3FBF1F3B2FBF3F3184601F069F8B4
:106A20000346002B01D001230EE07B680F2B0AD810
:106A3000002279684FF0FF3001F031F8064A7B6898
:106A40001360002300E0012318460837BD4680BDCF
:106A5000A8180020DC180020D818002080B400AF4F
:106A6000054B1B781A46054B1B681344034A1360F9
:106A700000BFBD4680BC7047DC180020A02C002061
:106A800080B400AF024B1B681846BD4680BC7047FF
:106A9000A02C002080B584B000AF7860FFF7F0FF35
:106AA000B8607B68FB60FB68B3F1FF3F05D00A4B21
:106AB0001B781A46FB681344FB6000BFFFF7E0FF3A
:106AC0000246BB68D31AFA689A42F7D800BF00BFE3
:106AD0001037BD4680BD00BFDC18002080B586B0F1
:106AE00000AF78600023FB7500233B610023BB608F
:106AF0000023FB607B68002B01D10123BEE07B6893
:106B00009B68002B7B689B6A002B09D17B68002265
:106B1000DA627B68002283F824207868FFF744FB60
:106B2000786800F07DFA0346FB757B689B6A03F08A
:106B30001003002B40F09980FB7D002B40F09580E6
:106B40007B689B6A23F4885323F0020343F002021C
:106B50007B689A627B685A687B68DB691A437B684A
:106B60001B7B5B001343BA681343BB607B689B6865
:106B7000B3F5807F03D07B689B68012B02D14FF473
:106B8000807300E000233A6913433B617B681B7DFF
:106B9000012B19D17B681B7B002B09D17B689B697A
:106BA000013B5A033B69134343F400633B610BE031
:106BB0007B689B6A43F020027B689A627B68DB6A91
:106BC00043F001027B68DA627B681B685B6823F430
:106BD00069417B681B683A690A435A607B681B6895
:106BE0009A68284B13407A681268B9680B4393601F
:106BF0007B689B68B3F5807F03D07B689B68012B23
:106C000004D17B681B69013B1B05FB607B681B682B
:106C1000DB6A23F470017B681B68FA680A43DA6256
:106C20007B681B689A68184B1340BA689A420BD16C
:106C30007B680022DA627B689B6A23F0030343F0DF
:106C400001027B689A6218E07B689B6A23F012035A
:106C500043F010027B689A627B68DB6A43F00102B2
:106C60007B68DA620123FB7507E07B689B6A43F06F
:106C700010027B689A620123FB75FB7D184618376A
:106C8000BD4680BDFDF7E1FFFE0E1FFF80B584B05D
:106C900000AF78607B681B681B68FB607B681B68C3
:106CA0005B68BB60BB6803F02003002B3ED0FB6831
:106CB00003F00203002B39D07B689B6A03F01003BA
:106CC000002B05D17B689B6A43F400727B689A6253
:106CD0007B681B689B6803F46023B3F5602F1DD1AC
:106CE0007B681B7B002B19D17B681B685A687B680B
:106CF0001B6822F020025A607B689B6A23F4807232
:106D00007B689A627B689B6A03F48053002B05D1F1
:106D10007B689B6A43F001027B689A62786800F0A6
:106D200074F87B681B686FF012021A60BB6803F08E
:106D30008003002B4DD0FB6803F00403002B48D0E8
:106D40007B689B6A03F01003002B05D17B689B6A6C
:106D500043F400527B689A627B681B689B6803F46B
:106D6000E043B3F5E04F12D07B681B685B6803F427
:106D70008063002B25D17B681B689B6803F460232C
:106D8000B3F5602F1DD17B681B7B002B19D17B686D
:106D90001B685A687B681B6822F080025A607B6817
:106DA0009B6A23F480527B689A627B689B6A03F437
:106DB0008073002B05D17B689B6A43F001027B68DE
:106DC0009A62786800F06DF97B681B686FF00C02BE
:106DD0001A60BB6803F04003002B12D0FB6803F07D
:106DE0000103002B0DD07B689B6A43F480327B68E3
:106DF0009A62786800F012F87B681B686FF00102F5
:106E00001A6000BF1037BD4680BD80B483B000AFAC
:106E1000786000BF0C37BD4680BC704780B483B03B
:106E200000AF786000BF0C37BD4680BC70470000E3
:106E300080B485B000AF786039600023FB73002315
:106E4000BB607B6893F82430012B01D10223DCE086
:106E50007B68012283F824203B685B68062B1CD8E2
:106E60007B681B68596B3B685A6813469B00134448
:106E7000053B1F2202FA03F3DB4319403B68186805
:106E80003B685A6813469B001344053B00FA03F223
:106E90007B681B680A435A633CE03B685B680C2BC9
:106EA0001CD87B681B68196B3B685A6813469B00AB
:106EB0001344233B1F2202FA03F3DB4319403B68D0
:106EC00018683B685A6813469B001344233B00FA3A
:106ED00003F27B681B680A431A631BE07B681B682C
:106EE000D96A3B685A6813469B001344413B1F22F2
:106EF00002FA03F3DB4319403B6818683B685A68A1
:106F000013469B001344413B00FA03F27B681B6865
:106F10000A43DA623B681B68092B1CD97B681B6833
:106F2000D9683B681A6813465B0013441E3B07226E
:106F300002FA03F3DB4319403B6898683B681A6820
:106F400013465B0013441E3B00FA03F27B681B6888
:106F50000A43DA6019E07B681B6819693B681A68A4
:106F600013465B001344072202FA03F3DB43194084
:106F70003B6898683B681A6813465B00134400FA44
:106F800003F27B681B680A431A613B681B68102B7D
:106F900003D03B681B68112B32D17B681B681D4AEC
:106FA000934225D17B681B689B6803F40003002B88
:106FB00026D17B681B689A687B681B6842F40002D4
:106FC0009A603B681B68102B1AD1134B1B68134A3D
:106FD000A2FB03239A0C13469B0013445B00BB6087
:106FE00002E0BB68013BBB60BB68002BF9D107E046
:106FF0007B689B6A43F020027B689A620123FB73E3
:107000007B68002283F82420FB7B18461437BD469A
:1070100080BC704700240140A818002083DE1B4379
:1070200080B584B000AF78600023FB607B681B688C
:107030009B6803F00103012B2ED17B681B689A68C3
:107040007B681B6822F001029A60FFF719FDF86067
:107050001BE0FFF715FD0246FB68D31A022B14D97B
:107060007B681B689B6803F00103012B0DD17B68D3
:107070009B6A43F010027B689A627B68DB6A43F08C
:1070800001027B68DA62012307E07B681B689B686A
:1070900003F00103012BDCD0002318461037BD4656
:1070A00080BD80B483B000AF786000BF0C37BD46B0
:1070B00080BC704780B584B000AF78607B68002BDF
:1070C00001D10123EDE07B6893F82030DBB2002B87
:1070D00002D17868FFF7ACF87B681B681A687B6898
:1070E0001B6842F001021A60FFF7CAFCF86012E068
:1070F000FFF7C6FC0246FB68D31A0A2B0BD97B6844
:107100005B6A43F400327B685A627B68052283F82D
:1071100020200123C5E07B681B685B6803F0010346
:10712000002BE5D07B681B681A687B681B6822F01F
:1071300002021A60FFF7A4FCF86012E0FFF7A0FC5F
:107140000246FB68D31A0A2B0BD97B685B6A43F4AF
:1071500000327B685A627B68052283F82020012375
:107160009FE07B681B685B6803F00203002BE5D19E
:107170007B681B7E012B08D17B681B681A687B68C3
:107180001B6842F080021A6007E07B681B681A687F
:107190007B681B6822F080021A607B685B7E012B93
:1071A00008D17B681B681A687B681B6842F0400244
:1071B0001A6007E07B681B681A687B681B6822F00E
:1071C00040021A607B689B7E012B08D17B681B689C
:1071D0001A687B681B6842F020021A6007E07B682F
:1071E0001B681A687B681B6822F020021A607B68A3
:1071F000DB7E012B08D17B681B681A687B681B68E3
:1072000022F010021A6007E07B681B681A687B682E
:107210001B6842F010021A607B681B7F012B08D1AB
:107220007B681B681A687B681B6842F008021A605A
:1072300007E07B681B681A687B681B6822F00802FD
:107240001A607B685B7F012B08D17B681B681A681A
:107250007B681B6842F004021A6007E07B681B68C9
:107260001A687B681B6822F004021A607B689A68BF
:107270007B68DB681A437B681B691A437B685B6920
:1072800042EA03017B685B685A1E7B681B680A43FD
:10729000DA617B6800225A627B68012283F8202031
:1072A000002318461037BD4680BD80B487B000AFBC
:1072B000786039607B681B687B617B6893F820305D
:1072C000FB74FB7C012B03D0FB7C022B40F0AA80DB
:1072D0007B69D3F8003243F001027B69C3F80022D6
:1072E0003B685B6903F01F03012202FA03F3FB60B2
:1072F0007B69D3F81C22FB68DB431A407B69C3F827
:107300001C223B68DB69002B23D17B69D3F80C225C
:10731000FB68DB431A407B69C3F80C223B68DB68DF
:1073200019043B685B689BB23A68526919437B69F0
:10733000483243F832103B689B6819043B681B686D
:107340009AB23B685B690A4379694833DB000B44B6
:107350005A603B68DB69012B22D17B69D3F80C2290
:10736000FB681A437B69C3F80C223B681B6819044D
:107370003B685B689BB23A68526919437B69483243
:1073800043F832103B689B6819043B68DB689AB28B
:107390003B685B690A4379694833DB000B445A60F8
:1073A0003B689B69002B09D17B69D3F80422FB68F9
:1073B000DB431A407B69C3F8042207E07B69D3F8FA
:1073C0000422FB681A437B69C3F804223B681B69EB
:1073D000002B09D17B69D3F81422FB68DB431A40E8
:1073E0007B69C3F8142207E07B69D3F81422FB6899
:1073F0001A437B69C3F814223B681B6A012B07D12F
:107400007B69D3F81C22FB681A437B69C3F81C22F2
:107410007B69D3F8003223F001027B69C3F80022B4
:10742000002306E07B685B6A43F480227B685A6233
:10743000012318461C37BD4680BC704780B584B018
:1074400000AF78607B6893F82030DBB2012B2ED13F
:107450007B68022283F820207B681B681A687B689F
:107460001B6822F001021A60FFF70AFBF86012E0C5
:10747000FFF706FB0246FB68D31A0A2B0BD97B6881
:107480005B6A43F400327B685A627B68052283F8AA
:107490002020012312E07B681B685B6803F0010376
:1074A000002BE5D17B6800225A62002306E07B684E
:1074B0005B6A43F400227B685A6201231846103746
:1074C000BD4680BD80B489B000AFF860B9607A6015
:1074D0003B60FB6893F82030FB77FB681B689B6878
:1074E000BB61FB7F012B03D0FB7F022B40F0AD8003
:1074F000BB6903F08063002B0AD1BB6903F0006312
:10750000002B05D1BB6903F08053002B00F0958060
:10751000BB691B0E03F003037B6101227B699A4068
:107520003B681A60BB689B68002B0DD1BB681B6869
:107530005A05BB68DB68F96809681A437B69183328
:107540001B010B441A600FE0BB685B68DA00BB6884
:107550009B681A43BB68DB68F96809681A437B6952
:1075600018331B010B441A60FB681968BB681A6961
:107570007B6918331B010B4404331A60BB681B7D05
:10758000012B11D1FB681A687B6918331B01134466
:1075900004331B68FA68116843F480727B691833FE
:1075A0001B010B4404331A607B6807331B781A06EF
:1075B0007B6806331B781B041A437B6805331B78F2
:1075C0001B0213437A68043212781046FA68116875
:1075D00043EA00027B691B010B4403F5C6731A6082
:1075E0007B6803331B781A067B6802331B781B0405
:1075F0001A437B6801331B781B0213437A681278A5
:107600001046FA68116843EA00027B691B010B44CB
:1076100003F5C4731A60FB681A687B6918331B0191
:1076200013441B68FA68116843F001027B69183340
:107630001B010B441A6000230EE0FB685B6A43F4F5
:107640000012FB685A62012306E0FB685B6A43F4A0
:107650008022FB685A62012318462437BD4680BC4D
:10766000704780B487B000AFF860B9607A603B6063
:10767000FB6893F82030FB75FB7D012B03D0FB7D6D
:10768000022B40F00381BB68002B0ED1FB681B6806
:10769000DB6803F00303002B16D1FB685B6A43F43D
:1076A0000012FB685A620123F7E0FB681B681B6944
:1076B00003F00303002B07D1FB685B6A43F400125D
:1076C000FB685A620123E8E0FB681A68BB681B3359
:1076D0001B0113441B6803F004027B689A607B68FB
:1076E0009B68002B0CD1FB681A68BB681B331B011D
:1076F00013441B685B0DC3F30A027B681A600BE03E
:10770000FB681A68BB681B331B0113441B68DB084A
:1077100023F060427B685A60FB681A68BB681B33C1
:107720001B0113441B6803F002027B68DA60FB68EC
:107730001A68BB681B331B01134404331B6803F036
:107740000803002B03D07B6808221A610BE0FB685A
:107750001A68BB681B331B01134404331B6803F016
:107760000F027B681A61FB681A68BB681B331B0138
:10777000134404331B681B0ADAB27B689A61FB6806
:107780001A68BB681B331B01134404331B681B0CB2
:107790009AB27B685A61FB681A68BB681B01134484
:1077A00003F5DC731B68DAB23B681A70FB681A6871
:1077B000BB681B01134403F5DC731B681A0A3B68A2
:1077C0000133D2B21A70FB681A68BB681B011344FC
:1077D00003F5DC731B681A0C3B680233D2B21A70D3
:1077E000FB681A68BB681B01134403F5DC731B6854
:1077F0001A0E3B680333D2B21A70FB681A68BB6872
:107800001B01134403F5DE731A683B680433D2B2DC
:107810001A70FB681A68BB681B01134403F5DE731A
:107820001B681A0A3B680533D2B21A70FB681A68E3
:10783000BB681B01134403F5DE731B681A0C3B681D
:107840000633D2B21A70FB681A68BB681B01134476
:1078500003F5DE731B681A0E3B680733D2B21A7049
:10786000BB68002B08D1FB681B68DA68FB681B68E3
:1078700042F02002DA6007E0FB681B681A69FB68C7
:107880001B6842F020021A61002306E0FB685B6A75
:1078900043F48022FB685A62012318461C37BD4618
:1078A00080BC704780B485B000AF786039607B6879
:1078B00093F82030FB73FB7B012B02D0FB7B022B68
:1078C00009D17B681B6859697B681B683A680A4361
:1078D0005A61002306E07B685B6A43F480227B6880
:1078E0005A62012318461437BD4680BC7047000019
:1078F00080B485B000AF78607B6803F00703FB605D
:107900000C4BDB68BB60BA684FF6FF031340BB60EB
:10791000FB681A02BB68134343F0BF6343F40033B0
:10792000BB60044ABB68D36000BF1437BD4680BC4F
:10793000704700BF00ED00E080B400AF044BDB688F
:107940001B0A03F007031846BD4680BC704700BF02
:1079500000ED00E080B483B000AF0346FB7197F9FF
:107960000730002B0BDBFB7903F01F02064997F968
:1079700007305B09012000FA02F241F8232000BF22
:107980000C37BD4680BC704700E100E080B483B096
:1079900000AF03463960FB7197F90730002B0ADB13
:1079A0003B68DAB20C4997F907301201D2B20B44A6
:1079B00083F800230AE03B68DAB20849FB7903F058
:1079C0000F03043B1201D2B20B441A7600BF0C37EE
:1079D000BD4680BC704700BF00E100E000ED00E064
:1079E00080B489B000AFF860B9607A60FB6803F0DA
:1079F0000703FB61FB69C3F10703042B28BF0423C2
:107A0000BB61FB690433062B02D9FB69033B00E031
:107A100000237B614FF0FF32BB6902FA03F3DA43C4
:107A2000BB681A407B699A404FF0FF317B6901FACD
:107A300003F3D9437B680B40134318462437BD46F4
:107A400080BC704780B582B000AF78607B68013B36
:107A5000B3F1807F01D301230FE00A4A7B68013B29
:107A600053600F214FF0FF30FFF790FF054B0022CE
:107A70009A60044B07221A60002318460837BD4657
:107A800080BD00BF10E000E080B582B000AF78603C
:107A90007868FFF72DFF00BF0837BD4680BD80B571
:107AA00086B000AF0346B9607A60FB7300237B6148
:107AB000FFF742FF78617A68B9687869FFF790FF4D
:107AC000024697F90F3011461846FFF75FFF00BFD7
:107AD0001837BD4680BD80B582B000AF0346FB714C
:107AE00097F907301846FFF735FF00BF0837BD4646
:107AF00080BD80B582B000AF78607868FFF7A2FFE4
:107B0000034618460837BD4680BD0000F0B587B073
:107B100000AFF860B960C7E900230123FB750023BB
:107B2000BB7500237B752F4B1B7E012B01D10223DC
:107B300054E02C4B01221A764CF2503000F0A8F899
:107B40000346FB75FB7D002B44D1FB68012B02D162
:107B500001237B7507E0FB68022B02D102237B75B2
:107B600001E004237B750023BB752DE0BB7D5A002B
:107B7000BB6802EB030CBB7D1901D7E90023C1F1FF
:107B80002006A1F1200022FA01F403FA06F634439C
:107B900023FA00F0044323FA01F5A3B21946604624
:107BA00000F05AF84CF2503000F072F80346FB75C2
:107BB0000D4B1B690C4A23F001031361FB7D002B65
:107BC00007D1BB7D0133BB75BA7D7B7D9A42CDD396
:107BD00000E000BF034B00221A76FB7D18461C37DD
:107BE000BD46F0BDA82C00200020024080B483B028
:107BF00000AF0023FB710D4B1B6903F08003002BCA
:107C00000DD00A4B0A4A5A60084B0A4A5A60074B81
:107C10001B6903F08003002B01D00123FB71FB796A
:107C200018460C37BD4680BC704700BF002002409C
:107C300023016745AB89EFCD80B400AF054B1B69CD
:107C4000044A43F08003136100231846BD4680BCFC
:107C5000704700BF0020024080B483B000AF78605E
:107C60000B467B80084B0022DA61084B1B69074AF0
:107C700043F0010313617B687A881A8000BF0C37D8
:107C8000BD4680BC704700BFA82C002000200240E9
:107C900080B584B000AF7860FEF7F2FEF86010E0C7
:107CA0007B68B3F1FF3F0CD07B68002B07D0FEF759
:107CB000E7FE0246FB68D31A7A689A4201D2032390
:107CC00025E0154BDB6803F00103002BE8D1124BD4
:107CD000DB6803F02003002B02D00F4B2022DA6078
:107CE0000D4BDB6803F01003002B0BD10A4BDB6953
:107CF00003F00103002B05D1074BDB6803F00403FD
:107D0000002B03D000F00AF8012300E000231846FE
:107D10001037BD4680BD00BF0020024080B483B054
:107D200000AF00237B60234BDB6803F01003002BC4
:107D300009D0214BDB6943F002031F4AD3617B6802
:107D400043F010037B601B4BDB6803F00403002B44
:107D500009D0194BDB6943F00103174AD3617B68F3
:107D600043F004037B60134BDB6903F00103002B3A
:107D70000BD0114BDB6943F004030F4AD3610D4B69
:107D8000DB690C4A23F00103D3617B6840F20112E6
:107D9000934206D1074BDB69064A23F00103D36106
:107DA00002E0044A7B68D36000BF0C37BD4680BC4C
:107DB000704700BF00200240A82C002080B48BB088
:107DC00000AF7860396000237B6200233B6269E189
:107DD00001227B6A02FA03F3FB613B681B68FA69C4
:107DE0001340BB61BA69FB699A4240F058813B6815
:107DF0005B689A4A93425ED0984A934275D8984AF3
:107E0000934258D0964A93426FD8964A934252D0A2
:107E1000944A934269D8944A93424CD0924A9342EE
:107E200063D8924A934246D0904A93425DD8122B2F
:107E30002AD8122B59D801A252F823F0B77E000895
:107E4000917E0008A37E0008E57E0008EB7E000816
:107E5000EB7E0008EB7E0008EB7E0008EB7E00085E
:107E6000EB7E0008EB7E0008EB7E0008EB7E00084E
:107E7000EB7E0008EB7E0008EB7E0008EB7E00083E
:107E8000997E0008AD7E0008794A934213D02CE019
:107E90003B68DB683B6229E03B68DB6804333B629C
:107EA00024E03B68DB6808333B621FE03B68DB682B
:107EB0000C333B621AE03B689B68002B02D1042321
:107EC0003B6213E03B689B68012B05D108233B62B2
:107ED0007B68FA691A6109E008233B627B68FA69EA
:107EE0005A6103E000233B6200E000BFBB69FF2B47
:107EF00001D87B6801E07B6804337B61BB69FF2BA1
:107F000002D87B6A9B0002E07B6A083B9B003B61D6
:107F10007B691A680F213B6901FA03F3DB431A40BE
:107F2000396A3B6901FA03F31A437B691A603B68BB
:107F30005B6803F08053002B00F0B1804D4B9B69D0
:107F40004C4A43F0010393614A4B9B6903F00103E0
:107F5000BB60BB68484A7B6A9B08023352F82330F7
:107F6000FB607B6A03F003039B000F2202FA03F31A
:107F7000DB43FA681340FB607B68404A934213D0AE
:107F80007B683F4A93420DD07B683E4A934207D0BC
:107F90007B683D4A934201D1032306E0042304E0B9
:107FA000022302E0012300E000237A6A02F00302C8
:107FB00092009340FA681343FB602F497B6A9B0849
:107FC0000233FA6841F823203B685B6803F48013AE
:107FD000002B06D02D4B9A682C49BB6913438B604C
:107FE00006E02A4B9A68BB69DB43284913408B6043
:107FF0003B685B6803F40013002B06D0234BDA6860
:108000002249BB691343CB6006E0204BDA68BB69A9
:10801000DB431E491340CB603B685B6803F40033CD
:10802000002B06D0194B5A681849BB6913434B60A3
:1080300006E0164B5A68BB69DB43144913404B609A
:108040003B685B6803F48033002B21D00F4B1A6828
:108050000E49BB6913430B6021E000BF00003210E2
:10806000000031100000221000002110000012104A
:108070000000111000100240000001400008014003
:10808000000C0140001001400014014000040140B8
:108090000B4B1A68BB69DB43094913400B607B6AD1
:1080A00001337B623B681A687B6A22FA03F3002B78
:1080B0007FF48EAE00BF00BF2C37BD4680BC70473A
:1080C0000004014080B483B000AF78600B467B8031
:1080D00013467B707B78002B03D07A887B681A610B
:1080E00003E07B881A047B681A6100BF0C37BD4629
:1080F00080BC704780B584B000AF78607B68002B8F
:1081000001D101232BE17B6893F83D30DBB2002BDA
:1081100006D17B68002283F83C207868FEF7F0F8EF
:108120007B68242283F83D207B681B681A687B6883
:108130001B6822F001021A607B681B681A687B6862
:108140001B6842F400421A607B681B681A687B68EF
:108150001B6822F400421A6001F04EFCF8607B6854
:108160005B68814A934207D8FB68804A934294BF78
:1081700001230023DBB206E0FB687D4A934294BFF3
:1081800001230023DBB2002B01D00123E7E0FB68D1
:10819000784AA2FB03239B0CBB607B681B685B686F
:1081A00023F03F017B681B68BA680A435A607B680A
:1081B0001B681B6A23F03F017B685B686A4A934235
:1081C00002D8BB68013309E0BB684FF4967202FB2A
:1081D00003F3694AA2FB03239B0901337A681268FF
:1081E0000B4313627B681B68DB6923F44F4222F068
:1081F000FF027B685B685C498B4219D8FB68591E9B
:108200007B685B685B00B1FBF3F3591C40F6FC73C1
:108210000B40002B0AD0FB68591E7B685B685B0033
:10822000B1FBF3F30133C3F30B0351E004234FE03D
:108230007B689B68002B11D1FB68581E7B685968CE
:108240000B465B000B44B0FBF3F30133C3F30B03AA
:10825000002B0CBF01230023DBB212E0FB68581E89
:108260007B6859680B469B000B4499000B44B0FB9C
:10827000F3F30133C3F30B03002B0CBF01230023E3
:10828000DBB2002B01D0012322E07B689B68002B2E
:108290000ED1FB68581E7B6859680B465B000B4487
:1082A000B0FBF3F30133C3F30B0343F400430FE0DC
:1082B000FB68581E7B6859680B469B000B4499006D
:1082C0000B44B0FBF3F30133C3F30B0343F440431C
:1082D000796809681343CB617B681B681B6823F0CE
:1082E000C0017B68DA697B681B6A1A437B681B687C
:1082F0000A431A607B681B689B6823F4034323F0DE
:10830000FF037A6811697A68D26811437A68126843
:108310000B4393607B681B68DB6823F0FF017B687D
:108320005A697B689B691A437B681B680A43DA6059
:108330007B681B681A687B681B6842F001021A6040
:108340007B6800221A647B68202283F83D207B68CA
:1083500000221A637B68002283F83E20002318461F
:108360001037BD4680BD00BFA08601007F841E007F
:10837000FF083D0083DE1B43D34D621080B588B0FB
:1083800002AFF860084611461A4603467B810B4649
:108390003B811346FB80FEF773FB7861FB6893F823
:1083A0003D30DBB2202B40F0D9807B69009319234C
:1083B00001226D49F86800F0CDFC0346002B01D086
:1083C0000223CCE0FB6893F83C30012B01D102235F
:1083D000C5E0FB68012283F83C20FB681B681B6832
:1083E00003F00103012B07D0FB681B681A68FB68C8
:1083F0001B6842F001021A60FB681B681A68FB6880
:108400001B6822F400621A60FB68212283F83D2079
:10841000FB68402283F83E20FB6800221A64FB6858
:108420003A6A5A62FB68BA8C5A85FB685B8D9AB2CD
:10843000FB681A85FB684D4ADA62F8883A897989BF
:108440007B690193BB6A00930346F86800F004FB64
:108450000346002B52D0012381E07A69B96AF8689B
:1084600000F092FD0346002B0DD0FB681B6C042B23
:1084700007D1FB681B681A68FB681B6842F400722E
:108480001A6001236BE0FB685B6A1A78FB681B6863
:108490001A61FB685B6A5A1CFB685A62FB681B8D99
:1084A000013B9AB2FB681A85FB685B8D9BB2013B6E
:1084B0009AB2FB685A85FB681B685B6903F004038A
:1084C000042B1BD1FB681B8D002B17D0FB685B6A4C
:1084D0001A78FB681B681A61FB685B6A5A1CFB68A8
:1084E0005A62FB681B8D013B9AB2FB681A85FB68D8
:1084F0005B8D9BB2013B9AB2FB685A85FB681B8D72
:10850000002BAAD17A69B96AF86800F085FD0346A4
:10851000002B0DD0FB681B6C042B07D1FB681B687C
:108520001A68FB681B6842F400721A60012316E0A7
:10853000FB681B681A68FB681B6842F400721A60CB
:10854000FB68202283F83D20FB68002283F83E2050
:10855000FB68002283F83C20002300E00223184639
:108560001837BD4680BD00BF020010000000FFFFAD
:1085700080B58CB002AFF860084611461A46034633
:108580007B810B463B811346FB8000233B62FEF759
:1085900077FA7862FB6893F83D30DBB2202B40F02D
:1085A00050827B6A0093192301228249F86800F007
:1085B000D1FB0346002B01D0022343E2FB6893F872
:1085C0003C30012B01D102233CE2FB68012283F8FD
:1085D0003C20FB681B681B6803F00103012B07D0DC
:1085E000FB681B681A68FB681B6842F001021A608E
:1085F000FB681B681A68FB681B6822F400621A603B
:10860000FB68222283F83D20FB68402283F83E204D
:10861000FB6800221A64FB683A6B5A62FB68BA8EE8
:108620005A85FB685B8D9AB2FB681A85FB68624AC3
:10863000DA62F8883A8979897B6A0193BB6B009387
:108640000346F86800F09EFA0346002B01D0012390
:10865000F8E1FB681B8D002B13D10023FB61FB6845
:108660001B685B69FB61FB681B689B69FB61FB69BD
:10867000FB681B681A68FB681B6842F400721A608A
:10868000CCE1FB681B8D012B1ED1FB681B681A68AF
:10869000FB681B6822F480621A6072B600BF002378
:1086A000BB61FB681B685B69BB61FB681B689B69FE
:1086B000BB61BB69FB681B681A68FB681B6842F4F6
:1086C00000721A6062B635E0FB681B8D022B1ED16A
:1086D000FB681B681A68FB681B6842F400621A603A
:1086E00072B600BF00237B61FB681B685B697B611E
:1086F000FB681B689B697B617B69FB681B681A6868
:10870000FB681B6822F480621A6062B612E0FB68A4
:108710001B681A68FB681B6842F480621A600023B9
:108720003B61FB681B685B693B61FB681B689B697D
:108730003B613B6972E1FB681B8D032B00F21F81DB
:10874000FB681B8D012B23D17A6AB96BF86800F0A6
:10875000ABFC0346002B01D0012373E1FB681B68CF
:108760001A69FB685B6AD2B21A70FB685B6A5A1CB2
:10877000FB685A62FB681B8D013B9AB2FB681A8545
:10878000FB685B8D9BB2013B9AB2FB685A8545E161
:10879000FB681B8D022B52D17B6A0093BB6B0022BE
:1087A0000649F86800F0D6FA0346002B08D00123EA
:1087B00048E100BF020010000000FFFF04000100BC
:1087C00072B600BFFB681B681A68FB681B6842F43E
:1087D00000721A60FB681B681A69FB685B6AD2B298
:1087E0001A70FB685B6A5A1CFB685A62FB681B8D37
:1087F000013B9AB2FB681A85FB685B8D9BB2013B1B
:108800009AB2FB685A8562B600BFFB681B681A699A
:10881000FB685B6AD2B21A70FB685B6A5A1CFB6821
:108820005A62FB681B8D013B9AB2FB681A85FB6894
:108830005B8D9BB2013B9AB2FB685A85EEE07B6A86
:108840000093BB6B00228149F86800F083FA03466D
:10885000002B01D00123F5E0FB681B681A68FB6858
:108860001B6822F480621A6072B600BFFB681B6846
:108870001A69FB685B6AD2B21A70FB685B6A5A1CA1
:10888000FB685A62FB681B8D013B9AB2FB681A8534
:10889000FB685B8D9BB2013B9AB2FB685A856C4BBF
:1088A0001B68DB086B4AA2FB03231A0A13469B00D2
:1088B0001344DA00D31A3B623B6A013B3B623B6ADA
:1088C000002B18D1FB6800221A63FB68202283F872
:1088D0003D20FB68002283F83E20FB681B6C43F0C0
:1088E0002002FB681A6462B600BFFB68002283F8AE
:1088F0003C200123A6E0FB681B685B6903F00403CE
:10890000042BD9D1FB681B681A68FB681B6842F40A
:1089100000721A60FB681B681A69FB685B6AD2B256
:108920001A70FB685B6A5A1CFB685A62FB681B8DF5
:10893000013B9AB2FB681A85FB685B8D9BB2013BD9
:108940009AB2FB685A8562B600BFFB681B681A6959
:10895000FB685B6AD2B21A70FB685B6A5A1CFB68E0
:108960005A62FB681B8D013B9AB2FB681A85FB6853
:108970005B8D9BB2013B9AB2FB685A854EE07A6AE6
:10898000B96BF86800F090FB0346002B01D001237F
:1089900058E0FB681B681A69FB685B6AD2B21A7000
:1089A000FB685B6A5A1CFB685A62FB681B8D013BC3
:1089B0009AB2FB681A85FB685B8D9BB2013B9AB249
:1089C000FB685A85FB681B685B6903F00403042B92
:1089D00024D1FB681B8D032B07D1FB681B681A6829
:1089E000FB681B6822F480621A60FB681B681A69C6
:1089F000FB685B6AD2B21A70FB685B6A5A1CFB6840
:108A00005A62FB681B8D013B9AB2FB681A85FB68B2
:108A10005B8D9BB2013B9AB2FB685A85FB681B8D4C
:108A2000002B7FF488AEFB68202283F83D20FB6892
:108A3000002283F83E20FB68002283F83C200023BC
:108A400000E0022318462837BD4680BD040001001F
:108A5000A818002089B5F81480B588B002AFF86076
:108A6000084611461A4603467B810B463B81134656
:108A7000FB80FB681B681A68FB681B6842F4807205
:108A80001A607B6A00933B6A00224FF00111F8687C
:108A900000F060F90346002B0DD0FB681B681B68D3
:108AA00003F48073B3F5807F03D1FB684FF4007249
:108AB0001A6403235FE07B89DBB21A46FB681B68FC
:108AC00002F0FE021A617B6A3A6A2D49F86800F0EA
:108AD000BBF90346002B01D001234CE000237B614E
